:020000040800F2
:10000000C00700200D0200088F02000891020008BE
:1000100095020008990200089D02000800000000F7
:10002000000000000000000000000000A102000825
:10003000A302000800000000A50200081B28000819
:1000400027020008270200082702000827020008EC
:1000500027020008270200082702000827020008DC
:1000600027020008270200082702000827020008CC
:1000700027020008270200082702000827020008BC
:1000800027020008270200082702000827020008AC
:10009000270200082702000827020008270200089C
:1000A000270200082702000827020008270200088C
:1000B000270200083B2300085123000827020008FC
:1000C000270200082702000827020008270200086C
:1000D000270200082702000827020008FF05000881
:1000E000270200082702000827020008270200084C
:1000F000270200082702000827020008270200083C
:10010000270200082702000827020008270200082B
:10011000270200082702000827020008270200081B
:10012000270200082702000827020008270200080B
:1001300000F002F800F05AF80AA090E8000C82449F
:100140008344AAF10107DA4501D100F04FF8AFF27C
:10015000090EBAE80F0013F0010F18BFFB1A43F0A5
:10016000010318470C8D00002C8D00000A444FF04D
:10017000000C10F8013B13F0070408BF10F8014B06
:100180001D1108BF10F8015B641E05D010F8016B4B
:10019000641E01F8016BF9D113F0080F1EBF10F8AF
:1001A000014BAD1C0C1B09D16D1E58BF01F801CBD2
:1001B000FAD505E014F8016B01F8016B6D1EF9D555
:1001C0009142D6D37047000000230024002500266A
:1001D000103A28BF78C1FBD8520728BF30C148BFAA
:1001E0000B6070471FB51FBD10B510BD06F0A6F916
:1001F0001146FFF7F7FF00F029F806F0C4F903B441
:10020000FFF7F2FF03BC06F0C7F90000094880477A
:1002100009480047FEE7FEE7FEE7FEE7FEE7FEE7E8
:10022000FEE7FEE7FEE7FEE704480549054A064B00
:10023000704700008703000831010008C00100205A
:10024000C0070020C0030020C00300204FF4A060BE
:1002500000F06CFA00F042F900F08DF901F066FF51
:1002600001F0BCFF02F010F802F086F802F0A0F8EE
:1002700002F0CCF90A2000F021F905F01BFC02F095
:10028000F5FA02F095FA01E005F084FCFCE770470E
:1002900000BFFEE700BFFEE700BFFEE700BFFEE7CE
:1002A00070477047704700000CB500200190009027
:1002B0006C48006840F480306A49086000BF6948B3
:1002C000006800F4003000900198401C01900098F4
:1002D00018B90198B0F5A06FF1D16248006800F438
:1002E000003010B10120009001E000200090009843
:1002F000012843D15C48006840F010005A4908606A
:100300000846006820F0030008600846006840F0D6
:1003100002000860534840685249486008464068F7
:1003200048600846406840F480604860084640687D
:1003300020F47C1048600846406840F4E8104860AB
:100340000846006840F08070086000BF45480068BB
:1003500000F000700028F9D04248406820F0030007
:10036000404948600846406840F00200486000BFCD
:100370003C48406800F00C000828F9D10CBD10B5CD
:10038000FFF792FF10BD10B53648006840F001003D
:10039000344908600846406834490840314948609B
:1003A00008460068324908402E490860084600683F
:1003B00020F4802008600846406820F4FE00486071
:1003C0004FF41F008860FFF7DAFF4FF00060294903
:1003D000086010BD10B5002100200022214B5B6891
:1003E00003F00C0121B1042906D0082928D107E027
:1003F000214B224C236027E01F4B204C236023E03D
:10040000184B5B6803F47010164B5B6803F4803282
:10041000022303EB904022B9194B4343174C23604E
:100420000DE0104B5B6803F4003323B1144B4343DE
:10043000124C236003E0104B4343104C236003E055
:100440000D4B0E4C236000BF00BF064B5B68C3F32F
:1004500003130C4CE15C094B1B68CB40074C236039
:1004600010BD000000100240002002400000FFF814
:10047000FFFFF6FE08ED00E000127A000000002009
:1004800000093D0004000020014605E0002001E0D5
:10049000421CD0B20A28FBDB0A1EA1F10101F5D1F2
:1004A000704710B5044603E04FF47A70FFF7ECFF95
:1004B000201EA4F10104F7D110BD7047002107E010
:1004C00042F6E06100BF0A1EA1F1010399B2FAD120
:1004D000021EA0F1010398B2F2D1704700B585B0B9
:1004E000012144F2040000F0ABFC4FF40070ADF8C1
:1004F000100018208DF8130003208DF8120004A9B5
:10050000814800F0E1F94FF48060ADF8100004205C
:100510008DF8130004A97C4800F0D6F94FF4E130BF
:1005200000900020ADF80400ADF80600ADF808001A
:10053000ADF80C000C20ADF80A006946734801F0D4
:1005400034FC0121714801F0BCFC05B000BD08B5C8
:100550004FF4806000F0EAF827208DF800000420B6
:100560008DF8010001208DF802008DF80300684627
:1005700000F0E1F808BD00B585B00121880400F065
:100580006CFC0121082000F05BFC4FF48060ADF8AA
:10059000100018208DF8130003208DF8120004A914
:1005A0005B4800F091F94FF40060ADF810000420B2
:1005B0008DF8130004A9564800F086F9FFF7C7FF2D
:1005C0004FF4165000900020ADF80400ADF806007E
:1005D000ADF80800ADF80C000C20ADF80A00694633
:1005E0004C4801F0E2FB012240F22551494801F05C
:1005F00074FC0121474801F064FC05B000BD10B552
:1006000040F22551434801F04DFD002857D04148A4
:1006100001F0C8FC404908700846007848B900203D
:100620003E4908703E4908703E4908703E490870CE
:1006300045E039480078012809D138490870002080
:1006400037490870374908703749087037E0324831
:10065000007805280BD1002030490870012030496E
:10066000087000202F4908702F49087027E02A4899
:10067000007803280BD10020284908702849087009
:1006800001202849087000202749087017E02248F7
:10069000007807280AD100202049087020490870F6
:1006A0002049087001202049087008E000201B49FB
:1006B00008701B4908701B4908701B49087010BD61
:1006C00070B504460D46E1B2104801F067FC00BF6A
:1006D00040210E4801F0D0FC0128F9D1204670BD20
:1006E00070B505462C460BE02178084801F056FC11
:1006F00000BF4021054801F0BFFC0128F9D1641C6E
:1007000020780028F0D170BD000801400038014079
:10071000000C014000480040280000202400002078
:100720002500002026000020270000203149014339
:10073000314A1160704770B5002100230F22C47840
:1007400004B32D4C246804F4E064C4F5E064210A89
:10075000C1F10403CA40447804FA03F184781440D8
:1007600021430901254C0678A155047804F01F05A2
:100770000124AC4005786D11AD0005F1E025C5F808
:10078000004109E0047804F01F050124AC401C4D31
:100790000678761145F8264070BD1A4A0A40024391
:1007A000154B1B1F1A60704739B1134A121D12688E
:1007B0000243114B1B1D1A6006E00F4A121D1268FE
:1007C00082430D4B1B1D1A607047042808D14FF05F
:1007D000E021096941F004014FF0E022116107E0D6
:1007E0004FF0E021096921F004014FF0E02211618E
:1007F000704700000000FA050CED00E000E400E0A6
:1008000080E100E080FFFF1F10B50446CC48844221
:1008100008D10121042000F02DFB0021042000F06C
:1008200029FB46E0C748844208D10121082000F096
:1008300021FB0021082000F01DFB3AE0C248844261
:1008400008D10121102000F015FB0021102000F03C
:1008500011FB2EE0BD48844208D10121202000F088
:1008600009FB0021202000F005FB22E0B84884426B
:1008700008D10121402000F0FDFA0021402000F0C5
:10088000F9FA16E0B348844208D10121802000F033
:10089000F1FA0021802000F0EDFA0AE0AE4884422F
:1008A00007D10121801500F0E5FA0021A01500F024
:1008B000E1FA10BD10B50121084600F0DBFA002175
:1008C000012000F0D7FA10BD2DE9F04102460025C5
:1008D0000026002000230024002791F803C00CF01C
:1008E0000F0591F803C00CF0100CBCF1000F03D001
:1008F00091F802C04CEA050591F800C0BCF1000F68
:1009000031D0146800202BE04FF0010C0CFA00F3FA
:10091000B1F800C00CEA03069E4220D183004FF0DC
:100920000F0C0CFA03F7BC4305FA03FC4CEA040471
:1009300091F803C0BCF1280F06D14FF0010C0CFA5E
:1009400000FCC2F814C00AE091F803C0BCF1480FE3
:1009500005D14FF0010C0CFA00FCC2F810C0401C8D
:100960000828D1D31460B1F800C0BCF1FF0F34DD0A
:10097000546800202EE000F1080C4FF0010808FA3E
:100980000CF3B1F800C00CEA03069E4221D18300AB
:100990004FF00F0C0CFA03F7BC4305FA03FC4CEACA
:1009A000040491F803C0BCF1280F05D100F1080C34
:1009B00008FA0CF8C2F8148091F803C0BCF1480F93
:1009C00007D100F1080C4FF0010808FA0CF8C2F842
:1009D0001080401C0828CED35460BDE8F0814FF64B
:1009E000FF710180022181700421C17070470246AD
:1009F000002093680B400BB1012000E000207047FD
:100A00000146886880B2704702460020D3680B40D8
:100A10000BB1012000E0002070470146C86880B299
:100A2000704701617047416170470AB1016100E0A0
:100A300041617047C16070474FF480320A43826160
:100A40008161826182698269704702460020434B5E
:100A500018684FF68073184040EA021008433F4B75
:100A6000186070473E49C8617047F0B50A460023D8
:100A700000240021002500F00046B6F1004F02D10D
:100A8000364EF16901E0354E7168C0F3034583B21B
:100A900000F44016B6F5401F08D121F070612F4ECA
:100AA000766826F070662D4F7E6012E000F48016A6
:100AB000B6F5801F06D1032606FA05F4A14341F0DE
:100AC000706106E0460D360103FA06F6B14341F0C7
:100AD000706122B1460D360103FA06F6314300F08B
:100AE0000046B6F1004F02D11C4EF16101E01B4EF1
:100AF0007160F0BD30B500228B071C0F0F2303FA85
:100B000004F2164B08338C1053F824309343134CE3
:100B100008348D1044F8253023468C1053F82430C7
:100B20008C07240F00FA04F423430C4C08348D1076
:100B300044F8253030BD0A49DC31086070470000B8
:100B400000080140000C0140001001400014014069
:100B500000180140001C014000200140000001403D
:100B600000002042DF48006840F00100DD490860D5
:100B700008464068DC490840DA4948600846006891
:100B8000DA490840D74908600846006820F4802008
:100B900008600846406820F4FE0048604FF41F00DB
:100BA00088607047CF49096821F48031CD4A1160CF
:100BB0001146096821F480211160B0F5803F03D00F
:100BC000B0F5802F0ED106E0C649096841F48031A6
:100BD000C44A116007E0C349096841F4A021C14A31
:100BE000116000E000BF00BF704710B50146002251
:100BF000002300204A11012A02D1BA4C236806E0E2
:100C0000022A02D1B74C236A01E0B64C636A01F0B4
:100C10001F02012494401C400CB1012000E0002080
:100C200010BD38B5002000900024002500BF312001
:100C3000FFF7DBFF05460098401C00900098B0F5D8
:100C4000A06F01D0002DF2D03120FFF7CEFF08B108
:100C5000012400E00024204638BD01460020A14ABE
:100C6000106820F0F80040EAC10010607047A04909
:100C700008607047024600209A4B586820F47C10A8
:100C800042EA01031843974B586070479849086639
:100C9000704701460020934A506820F00300084343
:100CA000506070478F48406800F00C007047014664
:100CB00000208C4A506820F0F000084350607047D4
:100CC00001460020874A506820F4E06008435060E5
:100CD000704701460020834A506820F4605040EA83
:100CE000C1005060704729B17E4A527A02437D4B61
:100CF0005A7204E07B4A527A82437A4B5A727047A6
:100D00007B49D8310860704701460020754A506819
:100D100020F440400843506070470021714A20325F
:100D20001170704A82F82010012802D004280AD1DC
:100D300004E001216B4A2032117005E00521694A67
:100D40002032117000E000BF00BF704769490860A1
:100D500070476449096A0143624A116270476549F4
:100D600044390860704730B5002100220024002378
:100D70005C4D6D6805F00C0121B1042905D00829EE
:100D800023D105E05C4D056022E05B4D05601FE06E
:100D9000544D6D6805F47012524D6D6805F4803441
:100DA000022505EB92421CB9544D554305600BE0FA
:100DB0004C4D6D6805F400351DB1504D554305602F
:100DC00002E04D4D5543056002E04B4D056000BF0C
:100DD00000BF444D6D6805F0F0010909484D6B5C9A
:100DE0000568DD4045603F4D6D6805F4E061090A26
:100DF000434D6B5C4568DD4085603A4D6D6805F498
:100E00006051C90A3E4D6B5C4568DD40C560354D9B
:100E10006D6805F44041890B3A4D6B5CC568B5FBC4
:100E2000F3F5056130BD29B12E4A526902432D4BBD
:100E30005A6104E02B4A526982432A4B5A61704737
:100E400029B1284A92690243264B9A6104E0254A57
:100E500092698243234B9A61704729B1214AD26932
:100E60000243204BDA6104E01E4AD26982431D4BE3
:100E7000DA61704729B11B4AD2680243194BDA6024
:100E800004E0184AD2688243164BDA60704729B1F1
:100E9000144A12690243134B1A6104E0114A1269A1
:100EA0008243104B1A6170471249403908607047FD
:100EB0000F49C86470470B49C87170470948406AB8
:100EC00040F0807007494862704701460020054A9B
:100ED00092680A400AB1012000E0002070470149F1
:100EE00088727047001002400000FFF8FFFFF6FE16
:100EF000000042428004424200127A0000093D0094
:100F0000290000203900002010B50446FE48844224
:100F100008D10121C014FFF7ADFF0021E014FFF755
:100F2000A9FFC4E0B4F1804F08D101210846FFF7C2
:100F3000AEFF00210120FFF7AAFFB8E0F34884428A
:100F400008D101210220FFF7A2FF00210220FFF7B4
:100F50009EFFACE0EE48844208D101210420FFF757
:100F600096FF00210420FFF792FFA0E0E9488442A9
:100F700008D101210820FFF78AFF00210820FFF790
:100F800086FF94E0E448844208D101211020FFF755
:100F90007EFF00211020FFF77AFF88E0DF488442BF
:100FA00008D101212020FFF772FF00212020FFF748
:100FB0006EFF7CE0DA48844208D101214014FFF73B
:100FC00059FF00216014FFF755FF70E0D5488442B7
:100FD00009D10121C804FFF74DFF00214FF4002083
:100FE000FFF748FF63E0D048844209D1012108059A
:100FF000FFF740FF00214FF48010FFF73BFF56E062
:10100000CA48844209D101214805FFF733FF002176
:101010004FF40010FFF72EFF49E0C548844208D185
:1010200001214020FFF733FF00214020FFF72FFF71
:101030003DE0C048844208D101218020FFF727FF0E
:1010400000218020FFF723FF31E0BB48844208D114
:1010500001218015FFF71BFF0021A015FFF717FFE7
:1010600025E0B648844209D101210804FFF702FFB8
:1010700000214FF48030FFF7FDFE18E0B0488442B5
:1010800009D101214804FFF7F5FE00214FF400309B
:10109000FFF7F0FE0BE0AB48844208D10121880441
:1010A000FFF7E8FE00214FF48020FFF7E3FE10BDBC
:1010B00000220288944B98420ED0994B98420BD054
:1010C000B0F1804F08D0914B984205D0904B984298
:1010D00002D0904B984204D14FF68F731A404B8840
:1010E0001A438D4B984207D08C4B984204D04FF650
:1010F000FF431A40CB881A4302808B8883850B8874
:101100000385814B98420BD0854B984208D08B4B7E
:10111000984205D08A4B984202D08A4B984201D11E
:101120000B7A038601238382704770B50024002266
:101130000023058C4FF6FE7635400584028C8388AB
:10114000048B4FF68F752C40B51E2C400D882C4318
:10115000751E2A400D892A434D882A436A4DA842AC
:101160000BD06F4DA84208D0744DA84205D0744DE5
:10117000A84202D0734DA84213D14FF6F7752A400A
:101180004D892A434FF6FB752A408D882A434FF636
:10119000FF652B404FF6FF552B408D892B43CD89A2
:1011A0002B4383800483CD888586028470BD70B50F
:1011B000002400220023058C4FF6EF76354005848D
:1011C000028C8388048B48F6FF752C404FF6FF4550
:1011D0002C400D884FF6FF7606EA05252C434FF686
:1011E000DF752A400D8906EA05152A434D8806EA6F
:1011F00005152A43444DA84202D0494DA8421DD1AD
:101200004FF67F752A404D894FF6FF7606EA0515A1
:101210002A434FF6BF752A408D8806EA05152A43F2
:101220004FF6FF352B404FF2FF752B408D8906EAB4
:1012300085052B43CD8906EA85052B4383800483EE
:10124000CD880587028470BD70B50024002200237C
:10125000058C4FF6FF6635400584028C8388848BAD
:101260004FF68F752C404FF6FC752C400D882C43A3
:101270004FF6FF552A400D894FF6FF7606EA052501
:101280002A434D8806EA05252A431F4DA84202D06D
:10129000234DA8421DD14FF2FF752A404D894FF6CC
:1012A000FF7606EA05252A434FF6FF352A408D884A
:1012B00006EA05252A434EF6FF752B404DF6FF75CD
:1012C0002B408D8906EA05152B43CD8906EA0515C5
:1012D0002B4383808483CD888587028470BD70B55D
:1012E000002200230024058C4EF6FF76354005844D
:1012F000038C8488828B48F6FF752A404FF6FF45A1
:101300002A400D8820E00000002C0140000400402D
:1013100000080040000C0040001000400014004095
:1013200000340140004C0140005001400054014095
:1013300000180040001C0040002000400040014018
:1013400000440140004801404FF6FF7606EA0525BB
:101350002A434DF6FF752B400D8906EA05352B43D0
:101360004D8806EA05352B43FA4DA84202D0FA4DC6
:10137000A84208D14BF6FF752C408D894FF6FF76B9
:1013800006EA85152C4384808283CD88A0F84050DE
:10139000038470BD828B4FF2FF331A408283828BAD
:1013A0004FF6FF7303EA01231A4382837047F0B5B7
:1013B0000C461546002200210026078C4EF6FF7CC5
:1013C00007EA0C070784828B018C4FF6FF7707EA48
:1013D000043640F6FF473A404FF6FF7707EA052705
:1013E0003A434FF6FF7707EA03373A43D94FB842FB
:1013F0000ED0D94FB8420BD0B0F1804F08D0D74FA4
:10140000B84205D0D64FB84202D0D64FB84206D126
:101410004DF6FF77394046F48057394305E047F6EB
:10142000FF57394044F48057394382830184F0BD2B
:10143000828B4FF6F3731A408283828B0A43828336
:101440007047F0B50C461546002200210026078C97
:101450004FF6FF6C07EA0C070784828B018C4FF66E
:10146000FF7707EA04264FF60C773A404FF6FF77EE
:1014700007EA03172F433A43B64FB8420ED0B64F90
:10148000B8420BD0B0F1804F08D0B44FB84205D06D
:10149000B34FB84202D0B34FB84206D14FF6FF5710
:1014A000394046F48077394305E04FF2FF57394021
:1014B00044F48077394382830184F0BD028B4FF27C
:1014C000FF331A400283028B4FF6FF7303EA0123B6
:1014D0001A4302837047F0B50C46154600220021DE
:1014E0000026078C4FF6EF7C07EA0C070784028B77
:1014F000018C4FF6FF7707EA041640F6FF473A40A3
:101500004FF6FF7707EA03373A434FF6FF7707EACC
:1015100005273A438F4FB8420ED08F4FB8420BD0B9
:10152000B0F1804F08D08D4FB84205D08C4FB842F3
:1015300002D08C4FB84206D14FF6DF77394046F0E3
:101540001007394305E04FF65F77394044F0100744
:10155000394302830184F0BD028B4FF6F3731A40C6
:101560000283028B0A4302837047F0B50C4615468E
:1015700000220021068C4FF6FE773E400684028B47
:10158000018C4FF60C7632407E1C06EA03162E4381
:101590003243704EB0420ED06F4EB0420BD0B0F11D
:1015A000804F08D06D4EB04205D06D4EB04202D093
:1015B0006C4EB04206D14FF6FD76314044F0010644
:1015C000314305E04FF6F576314044F001063143F2
:1015D00002830184F0BD70B505460C465D48854226
:1015E0000ED05D4885420BD0B5F1804F08D05B48E6
:1015F000854205D05A48854202D05A48854200D1DA
:1016000000E000BF208850B92389A288618828465D
:10161000FFF7ABFFE1882846FFF79EFF25E0208813
:1016200004280AD12389A28861882846FFF753FF3E
:10163000E1882846FFF742FF17E0208808280AD1F2
:101640002389A28861882846FFF7FBFEE1882846A7
:10165000FFF7EEFE09E02389A28861882846FFF79C
:10166000A6FEE1882846FFF795FE70BD2DE9F04102
:1016700005460C4600260127608808B9022600E0CE
:101680000026A088012801D1022700E00127208838
:10169000A0B92389A28861882846FFF766FFE18800
:1016A0002846FFF759FF23893A4631462846FFF777
:1016B00012FFE1882846FFF701FF13E02389A28883
:1016C00061882846FFF707FFE1882846FFF7F6FE06
:1016D00023893A4631462846FFF747FFE1882846E6
:1016E000FFF73AFFBDE8F0810A884B881A438B88E0
:1016F0001A43CB881A430B891A434B891A438B89A7
:101700001A43A0F8442070474FF6FF7181800021F2
:101710000180C180418001727047002101804180B9
:101720008180C180018141818181C1817047002117
:1017300001804180012181800021C18001817047A9
:101740000021018041808180C180018141818181AE
:1017500070470000002C01400034014000040040AC
:1017600000080040000C004021B1028842F0010254
:10177000028004E002884FF6FE731A400280704730
:1017800031B1B0F8442042F40042A0F8442005E012
:10179000B0F84420C2F30E02A0F8442070471AB1FA
:1017A00083890B43838102E083898B438381704764
:1017B0008182704741EA0203A0F8483070471AB1AD
:1017C00083890B43838102E083898B438381704744
:1017D00001894FF6F8721140018170470A460021D5
:1017E00001894FF68F73194011430181704730B55D
:1017F00004460D4629462046FFF7F0FF208940F0B9
:101800000700208130BD2DE9F04104460D46164603
:101810001F46602D06D13B46012231462046FFF788
:101820005AFE05E03B46012231462046FFF79DFE69
:1018300029462046FFF7D2FF208940F0070020818B
:10184000BDE8F08130B50C4600210189C9B24FF6E0
:10185000FF7505EA0325154325432943018130BD62
:101860002DE9F04105460E461746984600244346AA
:101870003A4631462846FFF7E5FF2C894FF6F870C7
:10188000044044F007044FF68F70044044F07004A5
:101890002C81BDE8F081F0B504460D4616461F4682
:1018A0003B46324629462046FFF7CCFF208940F4CC
:1018B00080402081F0BD0185828270470A46002168
:1018C00001884FF68F731940114301807047F0B5BE
:1018D0000C4615461E460021002200230189028B7A
:1018E000038C4FF6F877394021434FF6FC473A40D6
:1018F00040F201173A434FF6DD773B404FF6FF7752
:1019000007EA06172F433B43018102830384F0BD9E
:101910000A460021018B4FF68F7319401143018352
:1019200070470A460021018B48F6FF7319404FF6B5
:10193000FF7303EA02231943018370470A4600211B
:10194000818B4FF68F7319401143818370470A468C
:101950000021818B48F6FF7319404FF6FF7303EAAD
:10196000022319438183704721B1028842F080022B
:10197000028004E002884FF67F731A4002807047AD
:1019800021B1828842F00402828004E082884FF60E
:10199000FB731A408280704721B1828842F00802AE
:1019A000828004E082884FF6F7731A408280704785
:1019B00021B1828842F00102828004E082884FF6E1
:1019C000FE731A40828070470A460021018B4FF651
:1019D000F77319401143018370470A460021018BB8
:1019E0004FF2FF7319404FF6FF7303EA02231943C6
:1019F000018370470A460021818B4FF6F773194027
:101A00001143818370470A460021818B4FF2FF7397
:101A100019404FF6FF7303EA02231943818370478D
:101A20000A460021018B4FF6FB73194011430183D5
:101A300070470A460021018B4FF6FF3319404FF6DD
:101A4000FF7303EA02231943018370470A4600210A
:101A5000818B4FF6FB7319401143818370470A460F
:101A60000021818B4FF6FF3319404FF6FF7303EAD5
:101A700002231943818370470A460021018B4FF6E8
:101A80007F7319401143018370470A460021018B7F
:101A9000C1F30E014FF6FF7303EA022319430183DA
:101AA00070470A460021818B4FF67F73194011431E
:101AB000818370470A460021818BC1F30E014FF6E6
:101AC000FF7303EA02231943818370470A4600210A
:101AD000018C4FF6FD7319401143018470470A468B
:101AE0000021018C4FF6F7731940114301847047B0
:101AF0000A460021018C4FF6DF7319404FF6FF7341
:101B000003EA02131943018470470A460021018C3D
:101B10004FF67F7319404FF6FF7303EA0213194320
:101B2000018470470A460021018C4FF6FF5319408B
:101B30004FF6FF7303EA02231943018470470A46F4
:101B40000021018C4FF2FF7319404FF6FF7303EA37
:101B500002231943018470470A460021018C4DF687
:101B6000FF7319404FF6FF7303EA023319430184F0
:101B7000704730B5002301248C40A3B2048C9C43F1
:101B80000484048C02FA01F5ADB22C43048430BD08
:101B900030B5002304248C40A3B2048C9C430484FD
:101BA000048C02FA01F5ADB22C43048430BD70B54B
:101BB0000346002000241846183001258D40ACB2A1
:101BC0001D8CA5431D8409B1082909D100EB6100D2
:101BD000056825F0700505600568154305600EE091
:101BE0000D1FC5F34E052844056825F4E045056042
:101BF00005684FF6FF7606EA02263543056070BD9C
:101C000021B1028842F00202028004E002884FF60D
:101C1000FD731A400280704721B1028842F004022D
:101C2000028004E002884FF6FB731A40028070477E
:101C300021B1828842F08002828004E082884FF6DF
:101C40007F731A408280704702884FF6F7731A40FC
:101C5000028002880A430280704782884FF68F73A1
:101C60001A40828082880A438280704702894FF638
:101C7000F8731A40028102890A430281704702897F
:101C80004FF67F731A40028102890A43028170472E
:101C900081847047818570478186704701877047CE
:101CA00081877047A0F84010704702884FF6FF43C5
:101CB0001A40028002880A43028070470146888EDB
:101CC00070470146088F70470146888F704701466C
:101CD000B1F8400070470146888C70470146088D76
:101CE000704702460020138A0B400BB1012000E030
:101CF00000207047CA430282704730B50246002078
:101D000000230024158A05EA0103958905EA0104E8
:101D100013B10CB1012000E0002030BDCA430282A3
:101D20007047000010B50446FB48844209D10121E8
:101D30008803FFF79FF800214FF48040FFF79AF8DF
:101D400032E0F648844209D101214804FFF79FF8A8
:101D500000214FF40030FFF79AF825E0F048844264
:101D600009D101218804FFF792F800214FF4802067
:101D7000FFF78DF818E0EB48844209D10121C8042F
:101D8000FFF785F800214FF40020FFF780F80BE003
:101D9000E548844208D101210805FFF778F80021C1
:101DA0004FF48010FFF773F810BD2DE9F04786B0AF
:101DB00005460E460024A24600BFA1460027B08972
:101DC00000B100BF2F462C8A4CF6FF700440F0880B
:101DD00004432C82AC894EF6F3100440B08831895C
:101DE0000843718908430443AC81AC8A4FF6FF4035
:101DF0000440B0890443AC8201A8FEF7B4FFC64892
:101E0000874202D1DDF810A001E0DDF80CA0A8891E
:101E100000F4004040B10AEBCA0000EB0A10316840
:101E20004900B0FBF1F807E00AEBCA0000EB0A102A
:101E300031688900B0FBF1F86420B8FBF0F00401D0
:101E40002009642101FB1089A88900F4004040B1F9
:101E5000322000EBC900B0FBF1F000F007000443B2
:101E600008E0322000EB09106421B0FBF1F000F033
:101E70000F0004432C8106B0BDE8F0874FF41651E3
:101E8000016000218180C18001810C2141810021FC
:101E90008181704710B502460020108A4FF2FF037F
:101EA00018400B884C8823438C882343CC882343D9
:101EB0001843108210BD0021018041808180C180C3
:101EC000704721B1828942F40052828104E0828904
:101ED0004DF6FF731A4082817047F0B50346002427
:101EE00000260025002040F66A17B94200D100BF45
:101EF0001846C1F3421401F01F06012707FA06F540
:101F0000012C01D10C3004E0022C01D1103000E092
:101F100014301AB107682F43076002E00768AF4327
:101F20000760F0BD1AB1838A0B43838202E0838A83
:101F30008B4383827047028A4FF6F0731A40028205
:101F4000028A0A430282704782894FF2FF731A4065
:101F5000828182890A438281704721B1828942F05D
:101F60000202828104E082894FF6FD731A40828169
:101F70007047028A4FF6DF731A400282028A0A43D0
:101F80000282704721B1028A42F48042028204E058
:101F9000028A4BF6FF731A4002827047C1F30802AF
:101FA0008280704701468888C0F3080070478189A5
:101FB00041F0010181817047028BD2B20283028B12
:101FC00042EA012202837047028B02F47F420283BD
:101FD000028B0A430283704721B1828A42F02002B9
:101FE000828204E0828A4FF6DF731A408282704751
:101FF00021B1828A42F01002828204E0828A4FF686
:10200000EF731A408282704721B1828A42F008023F
:10201000828204E0828A4FF6F7731A408282704708
:1020200021B1828942F40042828103E08289C2F3B5
:102030000E028281704721B1828A42F4006282825C
:1020400004E0828A4FF2FF731A4082827047828ACC
:102050004FF6FB731A408282828A0A43828270475B
:1020600021B1828A42F00202828204E0828A4FF623
:10207000FD731A408282704702460020B1F5007F4E
:1020800000D100BF13880B400BB1012000E00020FD
:10209000704701F40072B2F5007F00D100BFCA435F
:1020A0000280704770B502460024002300250020FE
:1020B00040F66A16B14200D100BFC1F3421501F0EB
:1020C0001F03012606FA03F3012D02D1968933403E
:1020D00006E0022D02D1168A334001E0968A334091
:1020E0000C12012606FA04F41688344013B10CB120
:1020F000012000E0002070BD10B50022002340F652
:102100006A14A14200D100BF0A1201249440A3B274
:10211000DC43048010BD0000003801400044004052
:1021200000480040004C00400050004030B589B0ED
:102130000025002401210846FEF78FFE012104201E
:10214000FEF77EFE0C20ADF8200018208DF823004D
:1021500003208DF8220008A98348FEF7B5FB40F262
:10216000E730ADF818000020ADF81400ADF81A0003
:10217000ADF8160005A94FF08040FEF799FF6020EA
:10218000ADF804000120ADF80600ADF80A500020BB
:10219000ADF80C0001A94FF08040FFF755F8082179
:1021A000C806FFF727FC0120ADF80600ADF80A408D
:1021B0000020ADF80C0001A94FF08040FFF78FF828
:1021C0000821C806FFF71FFC01218807FFF7CCFB99
:1021D00001218807FFF7C8FA09B030BD00B589B002
:1021E00001210220FEF739FE01210420FEF728FE1E
:1021F000C020ADF8200004208DF8230003208DF8C6
:10220000220008A95848FEF75FFB1D208DF8040046
:1022100001208DF8050003208DF8060001208DF8BF
:10222000070001A8FEF787FA5048FEF76DFE002070
:10223000ADF814004FF6FF70ADF818000020ADF8AF
:10224000160005A94948FEF733FF0A231A46032161
:102250004648FFF73CFB02A8FFF769FA0620ADF8F5
:10226000100002A94148FFF7B6F901213F48FFF7E6
:1022700041FD012211463D48FFF791FA01213B48FB
:10228000FFF772FA09B000BD00B589B00121042042
:10229000FEF7E3FD01210820FEF7D2FD08A8FEF7B6
:1022A0009EFBC020ADF8200004208DF82300032001
:1022B0008DF8220008A92E48FEF706FB1E208DF897
:1022C000040001208DF8050003208DF80600012090
:1022D0008DF8070001A8FEF72EFA2648FEF714FE37
:1022E0000020ADF814004FF6FF70ADF81800002084
:1022F000ADF8160005A91F48FEF7DAFE0A231A46B4
:1023000003211C48FFF7E3FA02A8FFF710FA0620A2
:10231000ADF8100002A91748FFF75DF90121154833
:10232000FFF7E8FC012211461248FFF738FA0121B5
:102330001048FFF719FA09B000BD10B501210B488C
:10234000FFF7DBFC18B101210848FFF7E7FC10BDDF
:1023500010B501210748FFF7D0FC18B1012105484D
:10236000FFF7DCFC10BD0000000801400004004045
:10237000000C01400008004008B501210820FEF7CC
:102380005FFD4FF47040ADF8000010208DF80300A1
:1023900003208DF8020069460448FEF795FA4FF4D1
:1023A00070410248FEF73DFB08BD0000000C0140F3
:1023B00008B501211120FEF743FD01210B48FEF76E
:1023C00054FB4FF40050ADF8000003208DF80200DC
:1023D00010208DF8030069460548FEF775FA4FF4A2
:1023E00000510348FEF71DFB08BD0000000230004D
:1023F0000010014008B50720009002E00098401E40
:10240000009000980028F9D108BD10B54FF4007075
:10241000E649086040100860FFF7ECFFE348083821
:10242000006808B9012000E0002000F4007008B145
:10243000002010BD4FF40070DC49091D0860FFF753
:10244000D9FFDA480838006800F4007008B10020AD
:10245000EFE74FF40070D549091D0860FFF7CAFF88
:102460000120E6E710B54FF48070D049091D0860DF
:10247000FFF7C0FF4FF40070CC49091D0860FFF75B
:10248000B9FF4FF48070C9490860FFF7B3FF4FF4FC
:102490000070C6490860FFF7ADFF10BD10B54FF4DE
:1024A0008070C249091D0860FFF7A4FF4FF4007057
:1024B000BE49091D0860FFF79DFF4FF48070BB49BE
:1024C0000860FFF797FF4FF48070B849091D086056
:1024D000FFF790FF10BD10B54FF48070B349091D90
:1024E0000860FFF787FF4FF40070B0490860FFF7FE
:1024F00081FF4FF48070AD490860FFF77BFF4FF418
:102500008070AA49091D0860FFF774FF10BD10B55F
:102510004FF48070A549091D0860FFF76BFF4FF469
:102520000070A2490860FFF765FF4FF480709F4973
:102530000860FFF75FFF9D480838006800F40070EE
:1025400030B14FF480709949091D0860002010BD1A
:102550004FF480709549091D08600120F7E770B5B8
:10256000044608251DE04FF480709049091D08605D
:10257000FFF740FF04F0800020B14FF400708B495A
:10258000086004E04FF400708849091D0860600687
:10259000040EFFF72FFF4FF4807084490860FFF7A7
:1025A00029FF281EA5F10101CDB2DCD14FF48070C6
:1025B0007E49091D086070BD70B508250024A8017A
:1025C0007A49086016E06006040E4FF4807077497F
:1025D000091D0860FFF70EFF4FF480707349086013
:1025E000FFF708FF71480838006800F4007008B170
:1025F00044F00104281EA5F10101CDB2E3D14FF44E
:1026000080706A49091D0860204670BD08B5012127
:102610000820FEF715FC4FF44070ADF800000220D2
:102620008DF8020014208DF8030069465F481038C9
:10263000FEF74AF908BD2DE9F04105460E4617465A
:102640009846FFF7E2FE10B90020BDE8F0810021B6
:1026500041EA4501C8B2FFF782FFFFF758FF18B9FA
:10266000FFF700FF0020F0E73046FFF778FFFFF7A5
:102670004EFF00240BE018F80400FFF770FFFFF78F
:1026800046FF18B9FFF7EEFE0020DEE7641CBC42EF
:10269000F1DBFFF7E7FE0120D7E72DE9F041044623
:1026A0000D4616461F463B46324629462046FFF752
:1026B000C2FF10B10020BDE8F0814FF0FF30FAE713
:1026C0002DE9F04105460F4614461E46FFF79DFED4
:1026D00010B90020BDE8F081002141EA4501C8B2EF
:1026E000FFF73DFFFFF713FF18B9FFF7BBFE002010
:1026F000F0E73846FFF733FFFFF709FFFFF785FEE6
:10270000012101EB4501C8B2FFF729FFFFF7FFFEEA
:102710000CE0FFF751FF3070012C02D1FFF7DBFE18
:1027200001E0FFF7BBFE761C601EC4B2002CF0D1A6
:10273000FFF798FE0120CDE72DE9F04104460D4654
:1027400016461F463B46324629462046FFF7B8FF4D
:1027500010B10020BDE8F0814FF0FF30FAE770B50E
:1027600004460D461646FFF750FE08B9002070BD1E
:10277000002141EA4401C8B2FFF7F1FEFFF7C7FEAE
:1027800018B9FFF76FFE0020F1E72846FFF7E7FED4
:10279000FFF7BDFE3046FFF7E2FEFFF7B8FEFFF79A
:1027A00061FE0120E3E7002070470000100C0140AB
:1027B00030B52A480068C822B0FBF2F1B1F1807F41
:1027C00001D301201DE021F07F40401E4FF0E022A8
:1027D000506150170F22002807DA13071D0E204BF7
:1027E00000F00F04241F1D5503E013071C0E1D4BA2
:1027F0001C5400BF00204FF0E022906107201061C0
:10280000002008B100BFFEE74FF0E020006940F073
:1028100001004FF0E021086130BD10B54FF07E514E
:102820001148006805F072F80F49086000F03EF8A2
:1028300000F069F803F05CFC00F0A4F800F0BFF9C8
:102840004FF082410848006805F02CFB04D800F0E6
:10285000B3F800200449086010BD0000000000200B
:1028600018ED00E000E400E0700000200020FE49C8
:102870000880FE490880FE490860FE490860FE495C
:102880000860FE490860FE490860FE490860FE498C
:102890000860FE490860FE490860FE490860FE497C
:1028A0000860FE490860FE490860704770B5FD4841
:1028B000FFF711FA0446FC48FFF70DFA0546FB48FE
:1028C0000460FB4805600021F648FFF7E1F90021AC
:1028D000F548FFF7DDF920B2E4490880684200B20C
:1028E000E1490880E3480068E049B1F90010084474
:1028F000E0490860DE480068DB49B1F9001008448F
:10290000DB49086070BD70B50021EA48006805F039
:102910002DF90BD0E849E748006805F0C3F905D365
:10292000E649E448006805F0BDFA05D24FF40051CD
:10293000E348FEF778F804E04FF40051E048FEF772
:1029400070F8E0480168E048006805F0DDFACD491C
:102950000860DE49B1F9000005F078F90646DC4868
:102960000168304605F0D2F90446DA480168C548E6
:10297000006805F0CBF90546214604F0C7FFC349BE
:10298000086070BD70B5D4480168D448006805F08F
:10299000BDF90546CD49B1F9040005F057F90646E1
:1029A000CF480168304605F0B1F90446294604F0E5
:1029B000ADFFCC49086070BD2DE9F05FAD490968F5
:1029C000AB4A1268881805F041F9AC49086000204C
:1029D000A7490860A7490860A748006804F06AFF93
:1029E00006464FF06632C04B04F054FC044604F037
:1029F00093F9A1490860A148006804F05BFF804694
:102A00004FF03332B94B04F045FC82468B469A486E
:102A1000006804F04FFF064652465B4604F0AEF9EC
:102A2000044604F079F9944908600846016894481E
:102A3000006804F06BFF92490860AD480168904857
:102A4000006804F063FF8E490860AA480068012806
:102A500001D1002008608A48006805F0BBF8B0F595
:102A6000FA5F02DDA448864908608548006805F0E1
:102A7000B1F810F5FA5F02DAA04881490860002138
:102A80007F48006805F040FA06469D4801683046D8
:102A900005F03CF904469B4801687748006805F05A
:102AA00033FA064698480168304605F02FF9054686
:102AB000214604F02BFF95490860BDE8F09F2DE901
:102AC000F04104460D46002C0CDA4FF4804190484A
:102AD000FDF7A7FF4FF400418D48FDF7A4FF6042CA
:102AE00004B20AE04FF400418948FDF79AFF4FF421
:102AF00080418748FDF797FF00BF002D0CDA4FF4A7
:102B000000518348FDF78DFF4FF480518048FDF759
:102B10008AFF684205B20AE04FF480517C48FDF715
:102B200080FF4FF400517A48FDF77DFF00BFAFB240
:102B3000A6B231464FF08040FFF7B2F839464FF069
:102B40008040FFF7AFF873495A48006805F0AAF9CA
:102B500005D371495748006805F0A4F80DD200214B
:102B60004FF08040FFF79CF800214FF08040FFF7C6
:102B700099F801205F49086002E000205D49086083
:102B800066494048006805F08DF905D364493D4821
:102B9000006805F087F80DD200214FF08040FFF764
:102BA0007FF800214FF08040FFF77CF80120514969
:102BB000086002E000204F490860BDE8F08170B570
:102BC000524801683148006804F0A0FE05464548B7
:102BD0000168284604F09AFE0446454801682046EC
:102BE00004F094FE2B4908604848016827480068B3
:102BF00004F08CFE05463B480168284605F084F940
:102C000004463B480168204604F080FE20490860E5
:102C10002048006804F0DEFF00B2B0F57A7F02DDE4
:102C200040481C4908601B48006804F0D3FF00B20C
:102C300010F57A7F02DA3C481649086014480068AB
:102C400004F0C8FF00B2B0F57A7F02DD35481049C4
:102C500008600F48006804F0BDFF00B210F57A7FED
:102C600065DA31480A4961E0B2000020B000002076
:102C7000C0000020BC0000204C00002048000020C4
:102C80005400002058000020600000205C0000205C
:102C900068000020640000206C000020700000200C
:102CA000740000200004004000080040C400002020
:102CB000C8000020180100200000A0C10000A041B1
:102CC00000100140440000201C01002028010020C9
:102CD000980000209400002050000020A800002050
:102CE000A4000020840000206666E63F3333D33F13
:102CF00038010020CC0000200000FA450000FAC591
:102D0000A0000020400000209C0000208000002047
:102D1000000C014000002042000020C20000484298
:102D2000000048C200007A4400007AC408600748E6
:102D3000006804F04FFF04B20548006804F04AFF41
:102D400005B221462846FFF7BAFE70BD6800002094
:102D50006400002038B50446FB4890F82400C0B158
:102D600014B10220009001E000200090F64A1268A1
:102D7000D17BF54A526810786B460122FFF78DFC33
:102D800010B14FF0FF3038BD9DF80010EE4841748F
:102D900023E0ED48807A10B94FF0FF30F3E724B11B
:102DA000E948407C08B10020EDE714B10120009013
:102DB00001E000200090E44A1268D17BE24A5268A8
:102DC00010786B460122FFF768FC10B14FF0FF301E
:102DD000D9E79DF80010DC4841740020D3E738B5EE
:102DE000002419E0D8480068C07AA04204D0D64830
:102DF0000068407DA04200D10CE0D34949680878C2
:102E00006B4601222146FFF797FC10B14FF0FF30CF
:102E100038BD00BF601CC4B2CB4840680079A042F6
:102E2000E0DC0020F4E770B504460D46C6480068B3
:102E3000C07AA04204D0C4480068407DA04202D1BC
:102E40004FF0FF3070BDC04840680079A04202DCFE
:102E50004FF0FF30F6E7BC49496808782B4601225D
:102E60002146FFF769FCEDE738B50446B64890F80F
:102E70002300A04201D1002038BD14B130200090C1
:102E800001E000200090B048807C20B19DF8000057
:102E900040F002000090AC4890F8220020B19DF86C
:102EA000000040F080000090A74A1268117DA64AF9
:102EB000526810786B460122FFF7EFFB10B14FF01C
:102EC000FF30D9E7A04880F823400020D4E738B588
:102ED000044604F0700010B10120009005E014B128
:102EE0000020009001E040200090974A1268917CF9
:102EF000954A526810786B460122FFF7CEFB20B14D
:102F0000002191488172481E38BD9DF8000020F0D4
:102F100040018D4801730020009004F0400020B96A
:102F20009DF8000040F00400009004F0200020B95B
:102F30009DF8000040F00200009004F0100020B95D
:102F40009DF8000040F00100009004F0080020B956
:102F50009DF8000040F0380000907B4A1268D17C58
:102F6000794A526810786B460122FFF796FB20B130
:102F7000002175488172481EC6E724B1082C02D092
:102F80000020FFF771FF7048847200210175322024
:102F9000FDF787FA0020B7E738B504466A48807C19
:102FA000A04201D1002038BD002C46D0664A1268EC
:102FB0001179654A526810786B460122FFF7BCFB15
:102FC00010B14FF0FF30EEE79DF8000020F0200038
:102FD00000905D4A126811795B4A526810786B461E
:102FE0000122FFF75AFB10B14FF0FF30DBE703205F
:102FF000FDF757FA02200090534890F8220020B1C4
:103000009DF8000040F0800000904F4890F82300A9
:1030100020B19DF8000040F0300000904A4A12684C
:10302000117D494A526810786B460122FFF735FB43
:10303000002851D04FF0FF30B5E7434A12681179AC
:10304000414A526810786B460122FFF775FB10B1B8
:103050004FF0FF30A7E73C48807A00F0010028B12C
:103060009DF8000040F02000009004E09DF8000072
:1030700020F020000090344A12681179324A5268D8
:1030800010786B460122FFF708FB10B14FF0FF30BC
:1030900089E70320FDF705FA2B4890F8220010B1CC
:1030A0008020009001E000200090274890F8230045
:1030B00020B19DF8000040F030000090224A1268D4
:1030C000117D214A526810786B460122FFF7E5FA1C
:1030D00010B14FF0FF3066E71B488474002062E7B0
:1030E00008B51948807A10B94FF0FF3008BD0020AC
:1030F0000090154A1268D17B134A526810786B46CB
:103100000122FFF7CAFA10B14FF0FF30EEE70E4A86
:10311000126851790C4A526810786B460122FFF709
:10312000BCFA10B14FF0FF30E0E7074A126811799E
:10313000054A526810786B460122FFF7AEFA28B1B3
:103140004FF0FF30D2E70000D0000020F74890F8A1
:103150002400002853D00C200090F44A1268117902
:10316000F24A526810786B460122FFF796FA10B1C6
:103170004FF0FF30BAE73220FDF793F9C0200090FE
:10318000EA48807A00F0010020B19DF8000040F08C
:1031900020000090E54A12681179E44A52681078DC
:1031A0006B460122FFF779FA10B14FF0FF309DE72F
:1031B000DE48407C10B10220009001E00020009029
:1031C000DA4A1268D17BD94A526810786B460122DC
:1031D000FFF763FA10B14FF0FF3087E7002000904F
:1031E000D24A12685179D14A526810786B4601224E
:1031F000FFF753FA002855D04FF0FF3076E7042050
:103200000090CA4A12681179C84A526810786B4611
:103210000122FFF742FA10B14FF0FF3066E7C348D2
:10322000807C20B9C148807A00F0010010B94020AC
:10323000009001E060200090BC4A12681179BB4AFE
:10324000526810786B460122FFF727FA10B14FF051
:10325000FF304BE73220FDF724F9B448407C10B131
:103260000120009001E000200090B04A1268D17B5C
:10327000AE4A526810786B460122FFF70EFA10B181
:103280004FF0FF3032E7A94A12685179A74A5268D5
:103290001078A64B10330122FFF7FFF910B14FF061
:1032A000FF3023E7002021E770B50446002624F014
:1032B00001049E4890F8240008B1002070BD9B488E
:1032C000807A10B94FF0FF30F8E79848057C807A93
:1032D0002040964908740846007CA04202D04FF076
:1032E000FF3600E0002614B99048007D18B1012097
:1032F000FFF730FD02E00020FFF72CFD3CB1FFF7A7
:10330000EFFE20B1894805744FF0FF30D6E7304614
:10331000D4E738B504468548807A10B94FF0FF30BD
:1033200038BDBC2C02DB0120009015E0622C02DBD2
:103330000220009010E02A2C02DB032000900BE01A
:10334000142C02DB0420009006E00A2C02DB05208E
:10335000009001E0062000907448C07A9DF80010AB
:10336000884201D10020DBE7704A126891786F4AE9
:10337000526810786B460122FFF78FF910B14FF0B9
:10338000FF30CDE79DF800106848C1720020C7E704
:1033900038B50446282C02DD4FF0FF3038BDDCB9CB
:1033A0000020FFF761FD00208DF8000007208DF858
:1033B00001005E4A1268917C5C4A526810786B4644
:1033C0000222FFF76AF910B14FF0FF30E6E7002163
:1033D000564801750020E1E70120FFF745FD202058
:1033E0008DF80000012C06D100208DF80100052089
:1033F000FFF78FFF17E0052C06DC01208DF8010098
:103400000520FFF786FF0EE0142C06DC02208DF865
:1034100001000A20FFF77DFF05E003208DF8010081
:103420001420FFF776FF9DF80100072101EB8010C3
:10343000C0B28DF801003D4A1268917C3B4A526847
:1034400010786B460222FFF728F910B14FF0FF30D9
:10345000A4E708213548817200210173012101751B
:103460000020FFF721FF002098E738B504462F48D9
:10347000807A10B94FF0FF3038BD2C4890F8240006
:1034800010B14FF0FF30F7E72848007D50B134B15C
:10349000282C04DCE0B2FFF77BFF0020ECE70020E3
:1034A000FFF776FF042C01DA042404E0B4F57A7FF8
:1034B00001DD4FF47A744FF47A7090FBF4F0401E03
:1034C000C0B20090194A12685178184A52681078B0
:1034D0006B460122FFF7E1F810B14FF0FF30CBE768
:1034E0009DF80000401C4FF47A7191FBF0F081B21E
:1034F0000E48C1810146C9894810FFF70AFF002024
:10350000BAE738B504460948807A10B94FF0FF3061
:1035100038BD022C06D0042C0AD0082C0BD0102C5D
:103520000FD10BE0002000900EE00000D000002042
:103530000820009008E01020009005E0182000907E
:1035400002E04FF0FF30E3E700BFF848407A9DF813
:103550000010B0EBE10F01D10020D9E7F34A126867
:10356000D179F24A526810786B460122FFF795F83C
:1035700010B14FF0FF30CBE79DF80000C110EB48D1
:1035800041720020C4E738B50446E848807A10B993
:103590004FF0FF3038BDFA2C09D0B4F5FA7F09D0CE
:1035A000B4F57A7F09D0B4F5FA6F0CD108E00020A9
:1035B00000900BE00820009008E01020009005E04B
:1035C0001820009002E04FF0FF30E3E700BFD7483B
:1035D000007A9DF80010B0EBE10F01D10020D9E78F
:1035E000D24A12689179D14A526810786B4601220A
:1035F000FFF753F810B14FF0FF30CBE79DF8000014
:10360000C010CA4908720020C4E71CB580208DF89C
:103610000000C64A1268917CC44A526810786B4612
:103620000122FFF73AF810B14FF0FF301CBD6420C3
:10363000FCF737FF00208DF80000BC4A1268917C2F
:10364000BA4A526810786B460122FFF726F810B18B
:103650004FF0FF30EAE7B54A1268917DB34A5268ED
:1036600010786B460622FFF767F810B14FF0FF3075
:10367000DCE79DF80500C007400F9DF8031001F03E
:10368000010140EA41009DF8011001F0010140EA0A
:1036900001048CB1012C03D10121A448C17430E094
:1036A000022C03D10021A148C1742AE0A0A0FDF79B
:1036B00017F84FF0FF30B9E79C4A1268D1789B4A5F
:1036C000526810786B460122FFF736F810B14FF0C0
:1036D000FF30ABE79DF8000000F00F042CB99E48C6
:1036E000FCF7FEFF4FF0FF30A0E7042C06D19BA0B3
:1036F000FCF7F6FF01218D48C17402E000218B48E0
:10370000C174FF2189488172FF2088490872FF2116
:1037100086484172C1724FF6FF71C181FF21017469
:1037200081740121017380F82210002180F8231098
:10373000417501751630016041608160163880F86E
:10374000241080F82510C1844FF4FA60FFF71BFFA6
:1037500010B14FF0FF3069E70220FFF7D2FE10B141
:103760004FF0FF3062E72A20FFF7D3FD10B14FF092
:10377000FF305BE73220FFF778FE10B14FF0FF30EB
:1037800054E70020FFF790FD10B14FF0FF304DE7F8
:103790000020FFF701FC10B14FF0FF3046E700209A
:1037A000FFF795FB002041E77CB504460D465F48D6
:1037B000807A00F0700010B94FF0FF307CBD5B4A9A
:1037C0001268117B594A526810786B460622FEF740
:1037D000B3FF10B14FF0FF30F0E79DF801009DF806
:1037E000001040EA012000B220809DF803009DF8FF
:1037F000021040EA012000B260809DF805009DF8AB
:10380000041040EA012000B2A08015B12846FCF760
:1038100054FE0020D2E77CB504460D464348807A2A
:1038200000F0080010B94FF0FF307CBD3F4A12682D
:10383000517B3E4A526810786B460622FEF77CFFA9
:1038400010B14FF0FF30F0E79DF801009DF8001037
:1038500040EA012000B220809DF803009DF802108C
:1038600040EA012000B260809DF805009DF8041038
:1038700040EA012000B2A08015B12846FCF71DFEE9
:103880000020D2E72DE9FE4F05460C462748807AF6
:1038900018B94FF0FF30BDE8FE8F244A1268917BC3
:1038A000224A5268107802AB0222FEF745FF10B19F
:1038B0004FF0FF30EFE79DF809009DF8081040EA4F
:1038C000012006B214B12046FCF7F7FD17494968FC
:1038D000C88804F0D3F9154901904968B1F9080086
:1038E00004F0B4F98346304604F0B0F9594600902C
:1038F00004F00AFB8246019904F076F881461F49DC
:1039000004F004F880464FF08F4104F0FFF90746B9
:1039100004F060F928600020BDE710B588B00446C7
:103920001CB94FF0FF3008B010BD29E0D0000020D6
:10393000556E737570706F7274656420736F667402
:10394000776172652070726F64756374207265763A
:103950002025642E0A000000208E000848616C6655
:103960002073656E73697469766974792070617209
:103970007420666F756E642E0A00000000000C4211
:10398000206830B9606820B9A06810B9002008B07C
:1039900010BDFA494968087806AB03221146FEF7C4
:1039A000CBFE10B14FF0FF30F1E79DF81800082171
:1039B00001EB201000F00F00ADF800009DF8190099
:1039C00001EB201000F00F00ADF802009DF81A0086
:1039D00001EB201000F00F00ADF80400206841005A
:1039E000BDF90000403091FBF0F000B2ADF81000DE
:1039F00060684100BDF90200403091FBF0F000B278
:103A0000ADF81200A0684100BDF90400403091FB00
:103A1000F0F000B2ADF81400D8494968087806AB58
:103A200006221146FEF788FE10B14FF0FF30AEE7D8
:103A30009DF819009DF8181040EA012000B2ADF879
:103A400008009DF81B009DF81A1040EA012000B202
:103A5000ADF80A009DF81D009DF81C1040EA0120F9
:103A600000B2ADF80C00BDF81000BDF80810084415
:103A700000B2ADF81000BDF81200BDF80A100844FD
:103A800000B2ADF81200BDF81400BDF80C100844E7
:103A900000B2ADF81400BDF81000000A8DF818004F
:103AA000BDF81000C0B28DF81900BDF81200000A70
:103AB0008DF81A00BDF81200C0B28DF81B00BDF8D9
:103AC0001400000A8DF81C00BDF81400C0B28DF877
:103AD0001D00AA494968087806AB06221146FEF780
:103AE000DCFD10B14FF0FF3051E700204FE70146F9
:103AF000A248007A30B1012807D0022809D0032853
:103B00000FD10AE0FA2008800EE04FF4FA70088026
:103B10000AE04FF47A70088006E04FF4FA600880FB
:103B200002E00020088000BF00BF0020704701466F
:103B30009248407A30B1012807D0022808D00328E3
:103B40000CD108E0022008700BE00420087008E0A7
:103B50000820087005E01020087002E04FF0FF30E8
:103B6000704700BF8548C07C18B108784006000E39
:103B700008700020F4E701468048C07A082817D270
:103B8000DFE800F01704070A0D101318BC200880A6
:103B900013E06220088010E02A2008800DE0142045
:103BA00008800AE00A20088007E00520088004E079
:103BB00000BF00BF0020088000BF00BF002070478A
:103BC00001466E4890F8240010B14FF0FF30704766
:103BD0006A48C08908800020F9E701460020088073
:103BE000401E704701464FF0FF3070470146634862
:103BF000007A30B1012807D0022808D003280CD160
:103C000008E05F4808600BE05E48086008E05E4836
:103C1000086005E05D48086002E04FF0FF30704743
:103C200000BF0020FBE701465448407A30B101282C
:103C300008D002280AD0032810D10BE04FF48040AE
:103C400008800EE041F69C7008800AE04FF4805036
:103C5000088006E04FF40060088002E04FF0FF307B
:103C6000704700BF4548C07C10B1088840100880EC
:103C70000020F5E701464148007C087000207047AD
:103C800001463E48807A10B10120087001E0002012
:103C900008700020704738B504463848807A10B95B
:103CA0004FF0FF3038BD354A1268117C334A5268F4
:103CB00010786B460222FEF73FFD10B14FF0FF3047
:103CC000F0E79DF801009DF8001040EA012000B2E5
:103CD00020800020E6E72DE9FE4F07468846924601
:103CE0001D46DDF830B000260024244890F824005A
:103CF00010B1601EBDE8FE8F002028701F48807A3A
:103D000010B94FF0FF30F5E71C48007C10B94FF0B8
:103D1000FF30EFE71948007C00F0400008B1B01C0C
:103D2000C6B21648007C00F0200008B1B01CC6B234
:103D30001248007C00F0100008B1B01CC6B20F4859
:103D4000007C00F0080008B1B01DC6B20B4A126832
:103D5000917A0A4A526810786B460222FEF7ECFC10
:103D600010B14FF0FF30C5E79DF801009DF800103D
:103D700040EA0129B1450BDA0020BBE7D000002062
:103D80000000034300008342333303423333834153
:103D9000FC4840684088B9EB600F17DDF94A1268AB
:103DA000517CF84A526810786B460122FEF7C4FC39
:103DB00010B14FF0FF309DE79DF8000000F01000BB
:103DC00020B1FFF78DF96FF0010093E75046FCF743
:103DD00074FBEC4A1268D17AEA4A526810786B4652
:103DE0003246FEF7A9FC10B14FF0FF3082E799FB95
:103DF000F6F0401E8BF8000000202870B4422AD054
:103E0000E048007C00F0080028B3601C1DF80000AA
:103E10001DF8041040EA012000B2A8F80000E01CE0
:103E20001DF80010A01C1DF8000041EA002000B29F
:103E3000A8F80200601D1DF80010201D1DF80000EC
:103E400041EA002000B2A8F80400287840F00800F9
:103E50002870A01D84B2B44213D0CA48007C00F080
:103E6000400070B1601C1DF800001DF8041040EA0D
:103E7000012000B23880287840F040002870A01C53
:103E800084B2B44213D0BF48007C00F0200070B16F
:103E9000601C1DF800001DF8041040EA012000B26B
:103EA0007880287840F020002870A01C84B2B442AA
:103EB00013D0B448007C00F0100070B1601C1DF8F5
:103EC00000001DF8041040EA012000B2B8802878F4
:103ED00040F010002870A01C84B200200AE7F8B55A
:103EE00004460F461646A74890F8240010B94FF034
:103EF000FF30F8BDA348807A10B94FF0FF30F8E7E3
:103F0000A04A1268917A9F4A526810786B46022242
:103F1000FEF712FC10B14FF0FF30EAE79DF8010008
:103F20009DF8001040EA0125A54203DA0020307018
:103F3000401EDEE7934840684088B5EB600F17DD10
:103F4000904A1268517C8F4A526810786B46012261
:103F5000FEF7F2FB10B14FF0FF30CAE79DF800000A
:103F600000F0100020B1FFF7BBF86FF00100C0E7D0
:103F7000E2B2844B1B68D97A824B5B6818783B4667
:103F8000FEF7DAFB10B14FF0FF30B2E795FBF4F02B
:103F9000401E30700020ACE701467A4880F82210BD
:103FA000002070477CB5054676494968087801AB22
:103FB00004220D21FEF7C0FB08B107207CBD9DF84F
:103FC0000700C0F301109DF8041001F0E00140EA81
:103FD000E1008DF800009DF80700C0F381009DF816
:103FE000051001F0E00140EAE1008DF801009DF8C4
:103FF000070000F003009DF8061001F0E00140EA20
:10400000E1008DF8020000241CE01DF8040018B93E
:10401000002045F8240013E05B4845F8240006E042
:1040200055F82400594903F071FE45F824001DF8A5
:104030000400401EC0B20DF804000028F0D100BFFB
:10404000601CC4B2032CE0DB0020B7E72DE9FE4F73
:1040500006460F4600256846FFF7A4FF002442E00D
:1040600056F8240057F82410A0EB010ABAF1000F0B
:1040700001DB514601E0CAF10001084603F0E6FD0C
:1040800083464FF08F4103F0AFFC80465DF824007B
:10409000002103F06BFD16D05DF82410404603F0BC
:1040A000A3FC82464FF07E5103F02EFF814629F09B
:1040B000004A3748416A504603F0F4FE12D201200C
:1040C000A04005430EE03248C169404603F0EAFDD6
:1040D00005D32F48016A404603F0E4FE02D20120D6
:1040E000A0400543641C032CBADB2846BDE8FE8FC4
:1040F0002DE9FC5F06460F460025224949680878ED
:1041000001AB03220D21FEF717FB10B10720BDE81C
:10411000FC9F9DF8040000F01F008DF804009DF83E
:10412000050000F01F008DF805009DF8060000F066
:104130001F008DF80600002462E056F8240057F8AE
:104140002410A0EB010BBBF1000F01DB594601E08D
:10415000CBF10001084603F079FD4FF08F4100904C
:1041600003F042FC814601A8005DC0B3084908681D
:1041700003F084FD83465946064803F035FC80462B
:104180000FE00000D00000207B14AE3E1D5A843F9B
:104190000C81000800B04C45FE49404603F0B6FDD6
:1041A000804601A8005D401EC0B201A90855002844
:1041B000F2D14146484603F017FC83464FF07E514A
:1041C00003F0A2FE82462AF0004BF348816958466C
:1041D00003F068FE13D20120A04005430FE0FFE783
:1041E000ED480169484603F05DFD05D3EA484169A1
:1041F000484603F057FE02D20120A0400543641C4C
:10420000032C9ADB284682E72DE9F04F87B005465C
:104210000C46914601208DF8100000208DF8110009
:10422000DE4A1268917CDD4A5268107804AB0222A3
:10423000FEF733FA20B14FF0FF3007B0BDE8F08F42
:10424000C820FCF72EF900208DF81000D34A126820
:10425000D17BD24A5268107804AB0122FEF71DFAD6
:1042600010B14FF0FF30E8E7CC4A12685179CB4AE1
:104270005268107804AB0122FEF70FFA10B14FF02C
:10428000FF30DAE7C54A1268917CC44A5268107858
:1042900004AB0122FEF701FA10B14FF0FF30CCE77A
:1042A000BE4A1268D17DBD4A5268107804AB012223
:1042B000FEF7F3F910B14FF0FF30BEE7B74A1268CE
:1042C0001179B64A5268107804AB0122FEF7E5F97D
:1042D00010B14FF0FF30B0E70C208DF81000AF4A5E
:1042E00012681179AD4A5268107804AB0122FEF7CA
:1042F000D4F910B14FF0FF309FE70F20FCF7D1F851
:10430000A648806A407A8DF81000A44A1268917815
:10431000A24A5268107804AB0122FEF7BEF910B130
:104320004FF0FF3089E79D48806A007A8DF81000D1
:104330009A4A12685178994A5268107804AB01225F
:10434000FEF7ABF910B14FF0FF3076E7B9F1000F8F
:1043500007D09248806A807A40F0E0008DF8100023
:1043600004E08E48806A807A8DF810008B4A1268CB
:1043700091798A4A5268107804AB0122FEF78DF9D0
:1043800010B14FF0FF3058E7B9F1000F07D0834864
:10439000806AC07A40F0E0008DF8100003E07E48AB
:1043A000C07A8DF810007D4A1268D1797B4A526834
:1043B000107804AB0122FEF770F910B14FF0FF3016
:1043C0003BE7B9F1000F02D0C820FCF76AF84020A3
:1043D0008DF81000714A12681179704A526810788D
:1043E00004AB0122FEF759F910B14FF0FF3024E77A
:1043F00078208DF81000694A12685179674A52682E
:10440000107804AB0122FEF748F910B14FF0FF30ED
:1044100013E761498889FCF744F800208DF8100003
:104420005E4A126851795D4A5268107804AB0122E5
:10443000FEF733F910B14FF0FF30FEE6574A12682D
:10444000917A564A5268107804AB0222FEF774F94A
:1044500010B14FF0FF30F0E69DF811009DF81010FC
:1044600040EA012B0C209BFBF0F0C6B20020A860B4
:1044700068602860A06060602060824665E0474A0E
:104480001268D17A454A5268107804AB0C22FEF7C4
:1044900053F910B14FF0FF30CFE69DF811009DF8B1
:1044A000101040EA012000B2ADF808009DF813009A
:1044B0009DF8121040EA012000B2ADF80A009DF804
:1044C00015009DF8141040EA012000B2ADF80C0070
:1044D000BDF90810206808442060BDF90A10606822
:1044E00008446060BDF90C10A0680844A0609DF805
:1044F00017009DF8161040EA012000B2ADF8000048
:104500009DF819009DF8181040EA012000B2ADF89E
:1045100002009DF81B009DF81A1040EA012000B22D
:10452000ADF80400BDF90010286808442860BDF902
:104530000210686808446860BDF90410A86808445F
:10454000A8600AF1010000F0FF0AB24597DB1248AB
:10455000D0F800C02868C117090441EA10410704D7
:1045600062460023384601F0B9FE32460023CDE909
:10457000020101F0B3FE28600748D0F800C0686867
:10458000C117090441EA1041070462460023384676
:1045900006E0000054E3853F0C810008D0000020B5
:1045A00001F09CFE32460023CDE9020101F096FEA7
:1045B0006860FE48D0F800C0A868C117090441EA45
:1045C0001041070462460023384601F087FE324658
:1045D0000023CDE9020101F081FEA860F348D0F884
:1045E00004C02068C117090441EA1041070462466B
:1045F0000023384601F072FE32460023CDE9020165
:1046000001F06CFE2060E948D0F804C06068C11772
:10461000090441EA1041070462460023384601F0CC
:104620005DFE32460023CDE9020101F057FE6060D5
:10463000DE48D0F804C0A068C117090441EA10415F
:10464000070462460023384601F048FE3246002344
:10465000CDE9020101F042FEA060A068002804DD5F
:10466000A068A0F58030A06003E0A06800F580306D
:10467000A0600020E1E538B50446CD4890F824005C
:10468000A04201D1002038BD24B3C94890F82500CC
:1046900010B94FF0FF30F6E70020FEF75BFB00207B
:1046A000FEF77AFCC249C88CFEF7DFFE00200090BE
:1046B000BF49496808786B4601222321FDF7EDFFC9
:1046C0000121BB4880F824100120FEF743FBFEF7D0
:1046D00007FD13E00020FEF73DFBB548007C00908D
:1046E000B349496808786B4601222321FDF7D5FFBD
:1046F0000021AF4880F82410FEF7F2FC0020C2E74A
:104700002DE9F04F8DB083460F4602200C90A8484B
:1047100090F8240020B10020FFF7ADFF012600E053
:10472000002603A8FFF7E3F905A8FFF700FA01A8A0
:10473000FFF721FA02A8FFF743FA9D4890F80AA074
:1047400004A8FFF797FA002407E0002239465846EC
:10475000FFF75AFD00B902E0641C022CF5DB00BF34
:10476000022C01D1002528E0002407E0012206A93F
:1047700009A8FFF749FD00B902E0641C022CF5DB33
:1047800000BF022C01D1002517E006A93846FFF72B
:104790005DFC00F0FF0809A95846FFF7A9FC00F0EE
:1047A000FF090025B9F1000F01D145F00105B8F16D
:1047B000000F01D145F0020500BFFF207C490872BF
:1047C000FF217B484172C1724FF6FF71C181FF2109
:1047D0008172017401210173BDF80C00FEF7D3FE54
:1047E0009DF81400FEF78DFEBDF80400FEF791FD64
:1047F000BDF80800FEF739FE5046FEF768FB9DF84D
:104800001000FEF751FD16B10120FFF734FF2846D6
:104810000DB0BDE8F08FF8B504460D46164616B942
:104820004FF0FF30F8BD6248807A10B94FF0FF308A
:10483000F8E720128DF80000E0B28DF801009DF835
:10484000010028445A4949684989884202DD4FF0ED
:10485000FF30E7E7564A1268117E554A52681078D1
:104860006B460222FDF719FF10B14FF0FF30D9E778
:10487000EAB24F4B1B68597D4D4B5B681878334645
:10488000FDF70BFF10B14FF0FF30CBE70020C9E779
:10489000F8B504460D46164616B94FF0FF30F8BD80
:1048A0004348807A10B94FF0FF30F8E720128DF8B6
:1048B0000000E0B28DF801009DF8010028443C4959
:1048C00049684989884202DD4FF0FF30E7E7384AFE
:1048D0001268117E364A526810786B460222FDF744
:1048E000DCFE10B14FF0FF30D9E7EAB2304B1B6865
:1048F000597D2F4B5B6818783346FDF71DFF10B1CB
:104900004FF0FF30CBE70020C9E72DE9F04385B039
:1049100005460E4690469946254890F8250020B158
:104920004FF0FF3005B0BDE8F08316B94FF0FF300F
:10493000F8E7002423E0281B102801DD102000E008
:10494000281B87B2321939462046FFF764FF10B1A1
:104950004FF0FF30E6E701AA39462046FFF798FFFF
:1049600010B14FF0FF30DDE730193A4601A901F0F0
:10497000D9FC10B16FF00100D4E7E01984B2AC4269
:10498000D9DB4FEA28208DF8000008F0FF008DF8F1
:104990000100074A1268917E054A526810786B46FA
:1049A0000222FDF77AFE40B104E000000C8100080D
:1049B000D00000204FF0FF30B4E701218A4880F892
:1049C0002510A0F826900020ACE70146864890F814
:1049D000240008700020704702464FF0FF307047F7
:1049E00001464FF0FF307047F8B505460F461446B4
:1049F000002C70D0B5F5FF5F01DDFF2605E0202D0E
:104A000001DA012601E0C5F3471607B90127282C72
:104A100002DD4FF0FF30F8BD7348407D28BB72487F
:104A200090F8240038B10020FFF725FE01216E48E0
:104A300080F8201003E000216B4880F820106A48BD
:104A40001630FFF754F868481830FFF770F86648DA
:104A50001A30FFF790F864481C30FFF7B1F862484D
:104A6000817A81771F30FFF705F90020FEF772F990
:104A70000020FEF78DFC00208DF800005A4A1268D5
:104A80009178594A526810786B460122FDF705FE6D
:104A900010B14FF0FF30BEE740208DF80000524AC1
:104AA0001268D17B504A526810786B460122FDF79C
:104AB000F4FD00B165E08DF800608DF801704A4AA0
:104AC0001268117A484A526810786B460222FDF744
:104AD000E4FD08B155E047E00520FBF7E2FC424861
:104AE000407A072101EBC000C0B28DF800003E4AB9
:104AF0001268D1793C4A526810786B460122FDF762
:104B0000CCFD00B13DE020208DF80000012C03D148
:104B100000208DF801000EE0052C03DC01208DF84B
:104B2000010008E0142C03DC02208DF8010002E0F3
:104B300003208DF801009DF80100072101EB801092
:104B4000C0B28DF80100284A1268917C264A52684A
:104B500010786B460222FDF7A0FD00B111E00121A3
:104B600021484175002056E71F4A1632002103E014
:104B7000505C00B105E0491C0C29F9D34FF0FF301F
:104B800049E7FF2018490872FF2117484172C17296
:104B90004FF6FF71C181FF21817201740121017300
:104BA0000146887FFEF793F90F49C88AFEF7EBFCB0
:104BB0000D49087EFEF7A5FC0B49488BFEF7A9FBC3
:104BC0000949888BFEF751FC0749C87FFEF76CFB4B
:104BD000054890F8200010B10120FFF74CFD00219E
:104BE00001484175002016E7D000002010B5C82309
:104BF0004FF48062F74940F6F630FFF786FE10BDAD
:104C000010B586B00446F4A000680390F3A00068D5
:104C10000290F3A000680190F2A00068009004F0F8
:104C2000030003A9085C8DF8140003A8C4F3C101B4
:104C3000405C8DF8150003A8C4F38111405C8DF829
:104C4000160004F0030002A9085C8DF8100002A809
:104C5000C4F3C101405C8DF8110002A8C4F38111B6
:104C6000405C8DF8120005AA032140F22640FFF7B0
:104C7000D2FD18B14FF0FF3006B010BD04AA0321D9
:104C800040F22A40FFF7C7FD10B14FF0FF30F3E7C5
:104C9000019805900098049004F0040058B19DF824
:104CA000140040F001008DF814009DF8100040F051
:104CB00001008DF8100004F0200058B19DF8150097
:104CC00040F001008DF815009DF8110040F0010042
:104CD0008DF8110004F4807058B19DF8160040F072
:104CE00001008DF816009DF8120040F001008DF8CB
:104CF000120005AA03214FF48860FFF78CFD10B164
:104D00004FF0FF30B8E704AA032140F23140FFF72B
:104D100082FD10B14FF0FF30AEE7B34804810020B0
:104D2000AAE71FB50446B048007A00F0030054F823
:104D300020000190AC48007A00F0040010B1019806
:104D400040420190A848007AC0F3C10054F8200006
:104D50000290A548007A00F0200010B1029840426D
:104D60000290A148007AC0F3811054F8200003900B
:104D70009D48008900F4807010B103984042039070
:104D80009A49019880FB0101800F40EA810001905F
:104D90009649029880FB0110820042EA91700290CD
:104DA0009249039880FB0110820042EA91700390BF
:104DB0000198000E8DF800000198000C8DF801009C
:104DC0000198000A8DF802000198C0B28DF8030026
:104DD0006A4604214FF47470FFF71DFD18B14FF0BF
:104DE000FF3004B010BD0298000E8DF8000002984C
:104DF000000C8DF801000298000A8DF8020002985C
:104E0000C0B28DF803006A4604214FF47570FFF7B5
:104E100002FD10B14FF0FF30E3E70398000E8DF86C
:104E200000000398000C8DF801000398000A8DF82B
:104E300002000398C0B28DF803006A4604214FF4C3
:104E40007670FFF7E8FCCCE770B588B0064601A89D
:104E5000FEF7E9FEBDF804000021C90341EA504510
:104E6000C4036148007A00F0030056F82000059062
:104E70005D48007A00F0040010B1059840420590AA
:104E80005948007AC0F3C10056F8200006905648F1
:104E9000007A00F0200010B1069840420690524877
:104EA000007AC0F3811056F8200007904E48008920
:104EB00000F4807010B10798404207900598C11720
:104EC000A0FB042301FB043100FB0510810041EA33
:104ED000927005900698C117A0FB042301FB0431D2
:104EE00000FB0510810041EA927006900798C117F7
:104EF000A0FB042301FB043100FB0510810041EA03
:104F0000927007900598000E8DF808000598000C27
:104F10008DF809000598000A8DF80A000598C0B2BE
:104F20008DF80B000698000E8DF80C000698000C0A
:104F30008DF80D000698000A8DF80E000698C0B294
:104F40008DF80F000798000E8DF810000798000CE0
:104F50008DF811000798000A8DF812000798C0B26A
:104F60008DF8130002AA0C214FF42570FFF753FCB3
:104F700008B070BD30B585B004461DA207CA02ABAB
:104F800007C3C82C03DD4FF0FF3005B030BDC8208B
:104F900090FBF4F0401E85B2280A8DF80000E8B2BC
:104FA0008DF801006A46022140F21620FFF733FC1B
:104FB00010B14FF0FF30E8E702AA0C2140F6C12003
:104FC000FFF729FC10B14FF0FF30DEE7064884817F
:104FD0000020DAE7348100084CCD6C000CC92C00AD
:104FE00036567600264666003C01002009E3CA02D8
:104FF000FEF2ABC4AAF1DFDFBBAFDFDF0146FC4846
:1050000080890880002070472DE9FC4706460F463E
:1050100006F0070010B1B7F5C86F03DD4FF0FF30A1
:10502000BDE8FC87384602F029FE8146F14902F0CE
:10503000DBFC80466846FEF77AFD9DF800000228FA
:1050400006D0042816D0082826D0102848D135E0EC
:105050004FF08D41404602F059FE814602F0D6FDE8
:1050600084B2E549404602F051FE814602F0CEFD91
:1050700085B238E04FF08C41404602F047FE814651
:1050800002F0C4FD84B2DD49404602F03FFE814695
:1050900002F0BCFD85B226E04FF08B41404602F0A5
:1050A00035FE814602F0B2FD84B2D549404602F099
:1050B0002DFE814602F0AAFD85B214E04FF08A4130
:1050C000404602F023FE814602F0A0FD84B2CD49A5
:1050D000404602F01BFE814602F098FD85B202E0D8
:1050E0004FF0FF309CE700BF20128DF80400E0B2C3
:1050F0008DF8050028128DF80600E8B28DF807003B
:1051000006F00100A0B101AA02214FF4EA70FFF7F6
:1051100082FB10B14FF0FF3082E70DF10602022151
:105120004FF49270FFF777FB10B14FF0FF3077E745
:1051300006F00200A0B101AA02214FF4EC70FFF7C3
:105140006AFB10B14FF0FF306AE70DF10602022151
:105150004FF49470FFF75FFB10B14FF0FF305FE743
:1051600006F00400A0B101AA02214FF4EE70FFF78F
:1051700052FB10B14FF0FF3052E70DF10602022151
:105180004FF49670FFF747FB10B14FF0FF3047E741
:10519000002045E738B504460020009004F00100E7
:1051A00020B19DF8000040F03000009004F00200B3
:1051B00020B19DF8000040F00C00009004F00400C5
:1051C00020B19DF8000040F0030000906A460121E4
:1051D0004FF4A470FFF71FFB38BD38B50446012C0F
:1051E00001DA012402E0042C00DD0424601EC0B2B8
:1051F00000906A46012140F24F10FFF70CFB38BDCA
:1052000038B50446052094FBF0F085B228128DF8DD
:105210000000E8B28DF801006A4602214FF4EF70F9
:10522000FFF7F9FA38BD38B50446052094FBF0F0D5
:1052300085B228128DF80000E8B28DF801006A46A8
:1052400002214FF4ED70FFF7E6FA38BDF8B50546D8
:105250000E464FF47A7095FBF0F000FB06F4200E3A
:105260008DF80000200C8DF80100200A8DF8020056
:10527000E0B28DF803006A4604214FF4AE70FFF7E8
:10528000CAFAF8BD38B50446052094FBF0F084B2A4
:1052900020128DF80000E0B28DF801006A4602216C
:1052A0004FF4AD70FFF7B7FA38BD38B504460520A6
:1052B00094FBF0F084B220128DF80000E0B28DF87B
:1052C00001006A4602214FF4AC70FFF7A4FA38BD22
:1052D00038B5044614B94FF0FF3038BD6A46042192
:1052E0004FF45870FFF7D4FA10B14FF0FF30F4E7E5
:1052F0009DF8000000069DF8011040EA01409DF86D
:10530000021040EA01209DF80310084320600020AD
:10531000E3E738B50446200E8DF80000200C8DF828
:105320000100200A8DF80200E0B28DF803006A4601
:1053300004214FF45870FFF76EFA38BD38B50446B3
:1053400014B94FF0FF3038BD6A4604214FF4717034
:10535000FFF79EFA10B14FF0FF30F4E79DF8000020
:1053600000069DF8011040EA01409DF8021040EA55
:1053700001209DF80310084300EB800080002060AE
:105380000020E0E738B504461420B4FBF0F4200E0A
:105390008DF80000200C8DF80100200A8DF8020025
:1053A000E0B28DF803006A4604214FF47170FFF7F4
:1053B00032FA38BD38B5044664B120208DF80000BB
:1053C00028208DF8010030208DF8020038208DF85B
:1053D000030004E0A3220421684600F0CFFF6A46E0
:1053E000042140F69E20FFF716FAFDF779FE38BD3E
:1053F0003C01002000004843000040460000C0453A
:10540000000040450000C04438B5044664B1C020E7
:105410008DF80000C2208DF80100C4208DF8020034
:10542000C6208DF8030004E08B220421684600F0BA
:10543000A5FF6A46042140F69820FFF7ECF9FDF736
:105440004FFE38BD3EB504466CB1FDA1D1E9002048
:105450008968CDE9002002916A4609214FF49760DE
:10546000FFF7D9F93EBDF9A2D2E900109268CDE963
:10547000010200916A4609214FF49760FFF7CBF9CA
:10548000F0E73EB5044602208DF80000CA208DF8F2
:105490000100E3208DF8020009208DF803006A4620
:1054A00004216820FFF7B7F9A3208DF8000004F06D
:1054B000400048B1C0208DF80100C8208DF80200DE
:1054C000C2208DF8030006E0A3208DF801008DF8BE
:1054D00002008DF8030004F4C07048B1C4208DF8B8
:1054E0000400CC208DF80500C6208DF8060006E0EB
:1054F000A3208DF804008DF805008DF80600A32088
:105500008DF807008DF808008DF809006A460A2119
:1055100040F6A720FFF77FF904F0030018B1202020
:105520008DF8000002E0D8208DF800006A460121C5
:1055300040F6B620FFF76FF904F0200018B1012003
:10554000FFF780FF02E00020FFF77CFF04F4C0704B
:1055500008B304F4807060B1B2208DF800008B2095
:105560008DF80100B6208DF802009B208DF8030015
:105570000BE0B0208DF8000080208DF80100B420F1
:105580008DF8020090208DF803006A46042140F651
:10559000A220FFF740F904F0010020B3F8208DF8B5
:1055A00000006A4601214FF40B60FFF734F9FA213D
:1055B0000720FFF729FD0720FFF7ECFD0120FFF78B
:1055C0000CFE6420FFF71CFE4FF4FA70FFF72BFE71
:1055D000C821A148FFF73AFE2820FFF753FE0A2012
:1055E000FFF763FE08E0D8208DF800006A4601212D
:1055F0004FF40B60FFF70FF904F0020018B1D92047
:105600008DF8000002E0D8208DF800006A460121E4
:1056100040F23D70FFF7FFF804F0040018B10120DC
:10562000FFF7F2FE02E00020FFF7EEFE04F01000AC
:1056300018B10120FFF7BEFE02E00020FFF7BAFE1E
:1056400044F0080085494881FDF74AFD0020834960
:10565000887304F0400018B10846807B801D887371
:1056600004F4C07020B17D48807B801D7B49887325
:1056700004F0140020B17948807B1030774988739A
:1056800004F0030020B17548807B001D73498873C6
:1056900000203EBD014671484089088000207047C7
:1056A0002DE9F0410446E07800F0C006E07800F013
:1056B0003F05607800F0010098B1EF102846E91727
:1056C00005EB5171C910A5EBC101491C01F0FF08A0
:1056D0006248006820B161484146026838469047F8
:1056E00000BF607800F0080030B15C48406818B135
:1056F000B0115A4A516888470020BDE8F08110B5C2
:1057000086B0044656A207CA03AB07C357A207CA0E
:105710008DE80700012C09D0022C0ED103AA0B2121
:1057200040F68220FFF777F806B010BD6A460B21DD
:1057300040F68220FFF76FF8F6E74FF0FF30F3E70F
:105740002DE9F04F8DB00746884615469946DDE9AC
:10575000166B0024002030804049887B5A4605A9FA
:10576000FEF7BDFB18B1601E0DB0BDE8F08F3B48E1
:10577000807A00F01400002861D09DF81400000623
:105780009DF8151040EA01409DF8161040EA0120EE
:105790009DF81710084328609DF8180000069DF832
:1057A000191040EA01409DF81A1040EA01209DF8C6
:1057B0001B10084368609DF81C0000069DF81D1032
:1057C00040EA01409DF81E1040EA01209DF81F109C
:1057D0000843A8609DF8200000069DF8211040EACB
:1057E00001409DF8221040EA01209DF82310084353
:1057F000E86004F11000C4B22868001401906868E1
:1058000000140290A86800140390E8680014049043
:1058100001984043029901FB0100039901FB01003B
:10582000049901FB010ABAF1706F02DBBAF1885FDB
:1058300022DDFDF755FC00203080401E94E721E07A
:10584000B8AAB38DB4980D355D000000B8AAAAAA15
:10585000B088C3C5C700000009E3CA023C010020AC
:10586000D8B1B9F38BA391B609B4D900DAB1B9F3C1
:105870008BA391B6DAB4DA00B6F9000040F4807078
:10588000308000BF7848807A00F0400020B305A93E
:10589000601C085C095D40EA012000B2A8F8000025
:1058A00005A9E01C095C05AAA01C105C41EA0020C7
:1058B00000B2A8F8020005A9601D095C201D105C5B
:1058C00041EA002000B2A8F80400A01DC4B2B6F955
:1058D000000040F0080030806348408900F4C07048
:1058E00008B305A9601C085C095D40EA012000B20C
:1058F000388005A9E01C095C05AAA01C105C41EADF
:10590000002000B2788005A9601D095C201D105C94
:1059100041EA002000B2B880A01DC4B2B6F9000070
:1059200040F0700030805048807A00F0030018B1D9
:1059300005A90819FFF7B4FE4846FAF7BEFD002096
:1059400012E701464848016000207047014646487A
:10595000416000207047014691F90020002A01DDD6
:1059600000201EE091F90020002A01DA042018E04E
:1059700091F90120002A01DD012012E091F90120B6
:10598000002A01DA05200CE091F90220002A01DD4D
:10599000022006E091F90220002A01DA062000E048
:1059A0000720704770B505462846FFF7D4FF044628
:1059B000E81CFFF7D0FF44EAC00084B2A81DFFF73F
:1059C000CAFF44EA801084B2204670BD70B588B02A
:1059D00002A905A8FEF794FE0446032C3FD101A8B6
:1059E000FEF704F9059802F031F90646019902F034
:1059F0008DF9054602F0EEF80590069802F026F9BA
:105A00000646019902F082F9054602F0E3F8069095
:105A1000079802F01BF90646019902F077F905464E
:105A200002F0D8F8079005A8FFF77BF96846FEF763
:105A3000FAF8BDF80010029848430290BDF8001033
:105A4000039848430390BDF800100498484304901D
:105A500002A8FFF7F9F905A0FAF742FE02E00CA050
:105A6000FAF73EFE08B070BD3C0100207365747407
:105A7000696E67206269617320737563636573661D
:105A8000756C6C79202E2E2E2E2E2E0A0000000012
:105A90006269617320686173206E6F74206265654E
:105AA0006E206D6F646966696564202E2E2E2E2E21
:105AB0002E0A000070B50024FDF7A7FD0446002C57
:105AC00060D17CA0FAF70CFE7820FDF700FA18B937
:105AD00081A0FAF705FE02E087A0FAF701FE782020
