:020000040800F2
:1000000060080020CD01000845110008B90700086C
:100010009110000879050008752200080000000012
:10002000000000000000000000000000691200084D
:100030007D05000800000000CD1100089D15000896
:10004000E7010008E7010008E7010008E7010008F0
:10005000E7010008E7010008E7010008E7010008E0
:10006000E7010008E7010008E7010008E7010008D0
:10007000E7010008E7010008E7010008E7010008C0
:10008000E7010008E7010008E7010008E7010008B0
:10009000E7010008E7010008E7010008E7010008A0
:1000A000E7010008E7010008E7010008E701000890
:1000B000E7010008E7010008E7010008E701000880
:1000C000E7010008E7010008E7010008E701000870
:1000D000E7010008E7010008E701000869210008BE
:1000E000E7010008E7010008E7010008E701000850
:1000F000E7010008E7010008E7010008E701000840
:10010000E7010008E7010008E7010008E70100082F
:10011000E7010008E7010008E7010008E70100081F
:10012000E7010008E7010008E7010008E70100080F
:1001300000F002F800F03AF80AA090E8000C8244BF
:100140008344AAF10107DA4501D100F02FF8AFF29C
:10015000090EBAE80F0013F0010F18BFFB1A43F0A5
:1001600001031847A46E0000C46E0000103A24BFBB
:1001700078C878C1FAD8520724BF30C830C144BF0C
:1001800004680C607047000000230024002500264E
:10019000103A28BF78C1FBD8520728BF30C148BFEA
:1001A0000B6070471FB51FBD10B510BD00F05EF9A4
:1001B0001146FFF7F7FF03F068FE00F07CF903B487
:1001C000FFF7F2FF03BC00F07DF90000094880470B
:1001D00009480047FEE7FEE7FEE7FEE7FEE7FEE729
:1001E000FEE7FEE7FEE7FEE704480549054A064B41
:1001F00070470000BD1600083101000860020020B1
:1002000060080020600400206004002010B54C103D
:1002100084EA530404D54042C1F1000138BF491EAD
:100220001B4204D55242C3F1000338BF5B1E00F0ED
:1002300048F814F0804F04D04042C1F1000138BFAB
:10024000491E14F0004F04D05242C3F1000338BFDE
:100250005B1E10BD40EA010310B59B070FD1042AB5
:100260000DD310C808C9121F9C42F8D020BA19BA81
:10027000884201D9012010BD4FF0FF3010BD1AB1E6
:10028000D30703D0521C07E0002010BD10F8013B3B
:1002900011F8014B1B1B07D110F8013B11F8014B62
:1002A0001B1B01D1921EF1D1184610BD02F0FF03B5
:1002B00043EA032242EA024200F087B870477047DF
:1002C000704753EA020C00F069802DE9F04B4FF0C3
:1002D0000006002B1FBFB3FA83F503FA05F424FAD6
:1002E00005F65E4012BF1643B2FA82F502FA05F433
:1002F000C5F120051EBF22FA05FC44EA0C04203596
:1003000056EA044C4FEA144418BF641C4FF000082E
:100310004FF00009904271EB030C39D3002919BF4B
:10032000B1FA81F701FA07F6B0FA80F700FA07F69A
:10033000C7F120071EBF20FA07FC46EA0C0620374B
:10034000B6FBF4FCA7EB0507103F07F01F0BCBF142
:1003500020060CFA0BFB2CFA06F644BFB346002627
:10036000202FA4BF5E464FF0000B5BEA060C08BFCF
:100370004FF0010B19EB0B09ABFB027C48EB0608B5
:10038000C01B06FB02CC0BFB03CC71EB0C01C1E7DD
:100390000B46024641464846BDE8F08B13B54FF088
:1003A00000004FF00001AFF30080BDE81C40704733
:1003B00010B500F02BF8006810BD10B5044600F031
:1003C00025F8046010BD4FF000020429C0F012802F
:1003D00010F0030C00F02080CCF1040CBCF1020FF3
:1003E00018BF00F8012BA8BF20F8022BA1EB0C01CD
:1003F00000F012B85FEAC17C24BF00F8012B00F8BE
:10040000012B48BF00F8012B7047000000487047DF
:10041000FC0100204FF0000200B5134694469646BA
:10042000203922BFA0E80C50A0E80C50B1F1200107
:10043000BFF4F7AF090728BFA0E80C5048BF0CC0B5
:100440005DF804EB890028BF40F8042B08BF704713
:1004500048BF20F8022B11F0804F18BF00F8012B85
:100460007047000000487047FC0100207546FFF708
:10047000F9FFAE4605006946534620F00700854661
:1004800018B020B5FFF7B0FEBDE820404FF00006E1
:100490004FF000074FF000084FF0000B21F007016C
:1004A000AC46ACE8C009ACE8C009ACE8C009ACE8AF
:1004B000C0098D4670470446AFF300802046FFF721
:1004C0007EFE000001491820ABBEFEE726000200B8
:1004D0007047000070B500211D48006805F012FC4F
:1004E0000BD01C491A48006805F0A8FC05D31A492E
:1004F0001748006805F0A2FD05D24FF400511748D7
:1005000000F010F904E04FF40051144800F00CF929
:1005100000211348006805F0C3FD12490860124924
:10052000B1F9000005F05EFC06461048016830464F
:1005300005F0B8FC04460E4801680A48006805F05A
:10054000B1FC0546214605F0ADFA0A49086070BDC8
:10055000EC0000200000A0C10000A04100100140FC
:10056000F000002040000020FC000020800000205F
:100570007C0000204400002000BFFEE770472DE90A
:10058000F041024600250026002000230024002719
:1005900091F803C00CF00F0591F803C00CF0100C9B
:1005A000BCF1000F03D091F802C04CEA050591F8A8
:1005B00000C0BCF1000F31D0146800202BE04FF0D8
:1005C000010C0CFA00F3B1F800C00CEA03069E42DD
:1005D00020D183004FF00F0C0CFA03F7BC4305FA4F
:1005E00003FC4CEA040491F803C0BCF1280F06D1C7
:1005F0004FF0010C0CFA00FCC2F814C00AE091F8AC
:1006000003C0BCF1480F05D14FF0010C0CFA00FCFF
:10061000C2F810C0401C0828D1D31460B1F800C043
:10062000BCF1FF0F34DD546800202EE000F1080C0F
:100630004FF0010808FA0CF3B1F800C00CEA030609
:100640009E4221D183004FF00F0C0CFA03F7BC43FC
:1006500005FA03FC4CEA040491F803C0BCF1280F2E
:1006600005D100F1080C08FA0CF8C2F8148091F8D2
:1006700003C0BCF1480F07D100F1080C4FF001088E
:1006800008FA0CF8C2F81080401C0828CED3546039
:10069000BDE8F081F0B50A460023002400210025C2
:1006A00000F00046B6F1004F02D11D4EF16901E0A5
:1006B0001B4E7168C0F3034583B200F44016B6F5D3
:1006C000401F08D121F07061154E766826F07066E3
:1006D000134F7E6012E000F48016B6F5801F06D13D
:1006E000032606FA05F4A14341F0706106E0460DC9
:1006F000360103FA06F6B14341F0706122B1460DAE
:10070000360103FA06F6314300F00046B6F1004F19
:1007100002D1034EF16101E0014E7160F0BD0000B5
:100720000000014041617047016170474FF6FF7161
:100730000180022181700421C170704770B5164894
:1007400001F063FB0446154801F05FFB05461448C1
:1007500004601448056000210F4801F06BFC002183
:100760000E4801F067FC20B20F490880684200B2D1
:100770000E4908800E4800680B49B1F90010084482
:100780000B4908600B4800680849B1F9001008449B
:100790000849086070BD00000004004000080040E7
:1007A000980000209C000020280000202A00002043
:1007B0002C0000203000002000BFFEE710B54FF4F1
:1007C00080700C49086000F007F94FF40070094987
:1007D000086000F001F94FF480700649091F0860B5
:1007E00000F0FAF84FF480700249086000F0F4F865
:1007F00010BD0000140C014010B54FF480700C497E
:10080000086000F0E9F84FF400700949091F08601A
:1008100000F0E2F84FF480700549091F086000F00D
:10082000DBF84FF480700249086000F0D5F810BD85
:10083000140C014070B508250024A8011249086075
:1008400016E06006040E4FF480700F49091D086021
:1008500000F0C2F84FF480700B49086000F0BCF85B
:1008600009480838006800F4007008B144F0010439
:100870002800A5F10101CDB2E3D14FF48070024907
:10088000091D0860204670BD100C014070B504467B
:1008900008251DE04FF480701249086000F09CF8B4
:1008A00004F0800028B14FF400700E49091F086061
:1008B00003E04FF400700B4908606006040E00F07E
:1008C0008BF84FF480700749091F086000F084F826
:1008D0002800A5F10101CDB2DCD14FF480700149AF
:1008E000086070BD140C014010B54FF4007015493C
:1008F00008604010086000F06FF81248083800687F
:1009000008B9012000E0002000F4007008B10020C8
:1009100010BD4FF400700B49091D086000F05CF831
:1009200008480838006800F4007008B10020EFE7BC
:100930004FF400700349091D086000F04DF80120D4
:10094000E6E70000100C014010B54FF480700C4930
:10095000086000F041F84FF400700949086000F0A9
:100960003BF84FF480700649091F086000F034F826
:100970004FF400700249091F086000F02DF810BD07
:10098000140C014010B54FF480701249086000F05B
:1009900023F84FF400700F49091F086000F01CF89D
:1009A0004FF480700B49091F086000F015F80948E2
:1009B0000C38006800F4007028B14FF480700549CD
:1009C0000860002010BD4FF48070024908600120CB
:1009D000F8E70000140C014008B50720009002E081
:1009E0000098401E009000980028F9D108BD000032
:1009F00008B50121112000F017FC01210B48FFF779
:100A000049FE4FF4C040ADF8000003208DF802000D
:100A100010208DF8030069460548FFF7B0FD4FF43C
:100A2000C0410348FFF780FE08BD0000000230000F
:100A30000010014008B50121082000F0F5FB4FF43B
:100A40007040ADF8000010208DF8030003208DF8F1
:100A5000020069460448FFF792FD4FF470410248D6
:100A6000FFF762FE08BD0000000C014070B50024D5
:100A700003F040FB0446002C60D134A000F0A7FB3B
:100A8000782004F047F918B939A000F0A0FB02E083
:100A90003FA000F09CFB782003F01AFA18B947A099
:100AA00000F095FB02E04EA000F091FB642004F002
:100AB000E3F818B956A000F08AFB02E05EA000F04F
:100AC00086FB02F07DF918B964A000F080FB02E01B
:100AD0006FA000F07CFB7D4803F09CF9054602F016
:100AE000C9FB18B97AA000F072FB02E082A000F006
:100AF0006EFB40F2731002F00BF818B98AA000F0F8
:100B000066FB02E091A000F062FB642002F0E2FAD2
:100B100018B99AA000F05BFB02E0A1A000F057FB1F
:100B200004F0A0F9012003F0A3FF18B9A7A000F07A
:100B30004EFB0AE0AEA000F04AFB06E04FF4005185
:100B4000B648FFF7EFFD00BFFEE770BD6D70752082
:100B5000696E697469616C697A6174696F6E20632A
:100B60006F6D706C6574652E2E2E2E2E2E0A200051
:100B70006D70755F7365745F73656E736F722063FC
:100B80006F6D706C657465202E2E2E2E2E2E0A0031
:100B90006D70755F7365745F73656E736F722063DC
:100BA0006F6D65206163726F7373206572726F720F
:100BB000202E2E2E2E2E2E0A000000006D70755F46
:100BC000636F6E6669677572655F6669666F2063DD
:100BD0006F6D706C657465202E2E2E2E2E2E0A00E1
:100BE0006D70755F636F6E6669677572655F666964
:100BF000666F20636F6D65206163726F737320652C
:100C000072726F72202E2E2E2E2E2E0A00000000E1
:100C10006D70755F7365745F73616D706C655F7225
:100C200061746520636F6D706C657465202E2E2E67
:100C30002E2E2E0A000000006D70755F7365745FC4
:100C400073616D706C655F72617465206572726F3F
:100C500072202E2E2E2E2E2E0A000000646D705F44
:100C60006C6F61645F6D6F74696F6E5F64726976DB
:100C700065725F6669726D7761726520636F6D7012
:100C80006C657465202E2E2E2E2E2E0A000000007C
:100C9000646D705F6C6F61645F6D6F74696F6E5FC0
:100CA0006472697665725F6669726D7761726520DC
:100CB000636F6D65206163726F7373206572726F0D
:100CC00072202E2E2E2E2E2E0A000000D000002084
:100CD000646D705F7365745F6F7269656E74617463
:100CE000696F6E20636F6D706C657465202E2E2E9B
:100CF0002E2E2E0A00000000646D705F7365745F15
:100D00006F7269656E746174696F6E20636F6D6573
:100D1000206163726F7373206572726F72202E2E62
:100D20002E2E2E2E0A000000646D705F656E6162CB
:100D30006C655F6665617475726520636F6D706C5C
:100D4000657465202E2E2E2E2E2E0A00646D705F87
:100D5000656E61626C655F6665617475726520635E
:100D60006F6D65206163726F7373206572726F724D
:100D7000202E2E2E2E2E2E0A00000000646D705F95
:100D80007365745F6669666F5F7261746520636F17
:100D90006D706C657465202E2E2E2E2E2E0A00008E
:100DA000646D705F7365745F6669666F5F726174AE
:100DB0006520636F6D65206163726F737320657268
:100DC000726F72202E2E2E2E2E2E0A006D70755FE1
:100DD0007365745F646D705F737461746520636FB5
:100DE0006D706C657465202E2E2E2E2E2E0A00003E
:100DF0006D70755F7365745F646D705F737461743B
:100E00006520636F6D65206163726F737320657217
:100E1000726F72202E2E2E2E2E2E0A0000100140F0
:100E20002DE9F04F89B08C488C498D4B8D4ACDE926
:100E300000108D498D4801F0CFFF8848008800F4EC
:100E4000807000287DD08749086804F0CBFF0446F5
:100E50004FF09D4104F094FE85490860814948683F
:100E600004F0C0FF04464FF09D4104F089FE814923
:100E700008607C49886804F0B5FF04464FF09D4146
:100E800004F07EFE7C4908607649C86804F0AAFF39
:100E900004464FF09D4104F073FE784908607448A1
:100EA00001684FF0804004F0FDFF06907248016831
:100EB000069804F0F7FF82466E4801684FF0404004
:100EC00004F0F0FF06906D480168069804F0EAFF10
:100ED0008346514604F0E6FD079004F0B7FD064650
:100EE00001F09AFA80464FF06632654B04F0D4FA6E
:100EF000044604F097F8634908605F4801684FF0C2
:100F0000804004F0CFFF03905B480168039804F031
:100F1000C9FF8246574801684FF0404004F0C2FFC5
:100F2000039054480168039804F0BCFF834651467F
:100F300005F0B6F881464FF07E5104F0B3FD04464B
:100F400000E086E004F082FDCDE904014848016834
:100F50004FF0804004F0A6FF83464648016858469B
:100F600004F0A0FF8146444801684FF0804004F03F
:100F700099FF834641480168584604F093FF824632
:100F8000494604F08FFD044604F060FD0746DDE9A4
:100F9000042301F089FC4FF06632394BCDE906019C
:100FA00004F07AFA054604F03DF837490860334802
:100FB0000168006804F076FF03902F48016800681C
:100FC00004F070FF02902B480168006804F06AFF8B
:100FD000834627480168006804F064FF5946019081
:100FE00004F060FD8246029905F05AF881460399A3
:100FF00005F056F8044604F029FDCDE904011F4828
:1010000001681B48006804F04DFF82461A480168D9
:101010001848006804F046FF8346514604F042FD3C
:1010200081464FF0804104F03DFF044604F00EFD80
:101030000746DDE9042301F037FC4FF06632104B20
:10104000CDE9060104F028FA054603F0EBFF0F494D
:10105000086009B0BDE8F08F0A01002008010020F7
:10106000F8000020EC01002002010020FC0000201C
:10107000DC000020E0000020E4000020E800002068
:1010800066A64C40EC000020F0000020F400002098
:1010900000BFFEE770B5254801682548006804F0E8
:1010A00001FD24490860214801682148006804F0D6
:1010B000F9FC214908601F48006804F057FE00B29F
:1010C000B0F57A7F02DD1D481A49086019480068AA
:1010D00004F04CFE00B210F57A7F02DA1848154988
:1010E00008601548006804F041FE00B2B0F57A7F50
:1010F00002DD1248104908600F48006804F036FE0F
:1011000000B210F57A7F02DA0D480B4908600A48F0
:10111000006804F02BFE04B20648006804F026FEC6
:1011200005B22146284600F0A1F870BD6C000020F1
:10113000440000204C0000205000002000007A44B1
:1011400000007AC47047000070B5002100230F2210
:10115000C47804B3154C246804F4E064C4F5E06476
:10116000210AC1F10403CA40447804FA03F18478E7
:101170001440214309010E4C0678A155047804F06F
:101180001F050124AC4005786D11AD0005F1E02587
:10119000C5F8004109E0047804F01F050124AC40C3
:1011A000044D0678761145F8264070BD0CED00E040
:1011B00000E400E080E100E002490143024A1160DE
:1011C000704700000000FA050CED00E0704770B5B4
:1011D00005462C4603E0207800F0B6FF641C20781A
:1011E0000028F8D170BD000029B1064AD269024337
:1011F000044BDA6104E0034AD2698243014BDA61AD
:10120000704700000010024029B1064A12690243EB
:10121000044B1A6104E0034A12698243014B1A61CC
:10122000704700000010024029B1064A926902434B
:10123000044B9A6104E0034A92698243014B9A612C
:10124000704700000010024029B1064AD2680243EC
:10125000044BDA6004E0034AD2688243014BDA604F
:101260007047000000100240704700002DE9F04177
:1012700004460D46002C0CDA4FF480413B48FFF742
:1012800053FA4FF400413948FFF74CFA604204B278
:101290000AE04FF400413548FFF746FA4FF4804129
:1012A0003248FFF73FFA00BF002D0CDA4FF400512F
:1012B0002E48FFF739FA4FF480512C48FFF732FAE5
:1012C000684205B20AE04FF480512848FFF72CFA33
:1012D0004FF400512548FFF725FA00BFAFB2A6B280
:1012E00031464FF0804000F0A0FE39464FF080407C
:1012F00000F09DFE1E491F48006804F09FFE05D3C4
:101300001D491C48006804F099FD0DD200214FF0E2
:10131000804000F08AFE00214FF0804000F087FE00
:1013200001201649086002E00020144908601449B1
:101330001448006804F082FE05D313491148006880
:1013400004F07CFD0DD200214FF0804000F06DFED6
:1013500000214FF0804000F06AFE0120074908603C
:1013600002E0002005490860BDE8F081000C014062
:1013700000002041EC000020000020C1A00000205F
:101380000000484240000020000048C210B500F0B4
:1013900001F810BD0CB500200190009033480068A2
:1013A00040F480303149086000BF3048006800F4E4
:1013B000003000900198401C0190009818B90198E5
:1013C000B0F5A06FF1D12948006800F4003010B1E9
:1013D0000120009001E0002000900098012843D1F6
:1013E0002348006840F01000214908600846006862
:1013F00020F0030008600846006840F00200086022
:101400001A484068194948600846406848600846DC
:10141000406840F4806048600846406820F47C10D2
:1014200048600846406840F4E81048600846006894
:1014300040F08070086000BF0C48006800F0007049
:101440000028F9D00948406820F0030007494860A7
:101450000846406840F00200486000BF034840680A
:1014600000F00C000828F9D10CBD0000001002406B
:10147000002002402DE9F05F3B4909683B4A1268B1
:10148000881804F0AFFC3A4908600020374908602A
:10149000354908603748006804F0D8FA06464FF02E
:1014A0006632354B03F0F8FF044603F0BBFD3149CB
:1014B00008602F48006804F0C9FA80464FF03332C4
:1014C0002E4B03F0E9FF82468B462A48006804F061
:1014D000BDFA064652465B4603F0D6FD044603F0CD
:1014E000A1FD24490860084601682548006804F009
:1014F000D9FA2349086023480068012801D1002057
:1015000008601F48006804F031FCB0F5FA5F02DDA6
:101510001D481B4908601A48006804F027FC10F5B4
:10152000FA5F02DA19481649086000211448006879
:1015300004F0B6FD064616480168304604F0B2FCD9
:10154000044600210B48006804F0AAFD0646114835
:101550000168304604F0A6FC0546214604F0A2FAD4
:101560000D490860BDE8F09F2C00002030000020ED
:1015700034000020380000206666E63F3333D33F56
:101580003C000020A00000200000FA450000FAC541
:1015900088000020840000206C00002010B54FF06F
:1015A0007E512148006804F07DFA1F4908601F48F9
:1015B0000078401C1D4908704FF07E511C4800689F
:1015C00004F070FA1A490860FFF7B8F84FF07E513E
:1015D0001848006804F066FA164908601648007852
:1015E000401C1549087015480078401C13490870C4
:1015F000FEF770FFFFF74EFD4FF082410C48006888
:1016000004F01CFD06D8FFF735FF002008490860EC
:10161000084908600A48008820B109480088401E2F
:101620000749088010BD000054000020620000201F
:10163000580000205C0000206000002061000020B5
:101640002400002030B51A480068C822B0FBF2F12F
:10165000B1F1807F01D301201DE021F07F40401EC9
:101660004FF0E022506150170F22002807DA1307CD
:101670001D0E104B00F00F04241F1D5503E013072F
:101680001C0E0D4B1C5400BF00204FF0E022906157
:1016900007201061002008B100BFFEE74FF0E020F6
:1016A000006920F001004FF0E021086130BD00002A
:1016B0000000002018ED00E000E400E010B5134841
:1016C000006840F001001149086008464068104970
:1016D00008400E494860084600680E4908400B491A
:1016E00008600846006820F48020086008464068CA
:1016F00020F4FE0048604FF41F008860FFF746FEAC
:101700004FF000600449086010BD00000010024066
:101710000000FFF8FFFFF6FE08ED00E0F0B50C4614
:10172000154600220021068C4FF6FE773E400684C7
:10173000028B018C4FF60C7632407E1C06EA0316B3
:101740002E433243104EB0420ED0104EB0420BD05A
:10175000B0F1804F08D00E4EB04205D00D4EB042D1
:1017600002D00D4EB04206D14FF6FD76314044F026
:101770000106314305E04FF6F576314044F00106AD
:10178000314302830184F0BD002C0140003401404C
:101790000004004000080040000C0040F0B50C467A
:1017A0001546002200210026078C4FF6EF7C07EA41
:1017B0000C070784028B018C4FF6FF7707EA0416AB
:1017C00040F6FF473A404FF6FF7707EA03373A43C0
:1017D0004FF6FF7707EA05273A43114FB8420ED07C
:1017E000104FB8420BD0B0F1804F08D00E4FB84226
:1017F00005D00E4FB84202D00D4FB84206D14FF679
:10180000DF77394046F01007394305E04FF65F7740
:10181000394044F01007394302830184F0BD0000D1
:10182000002C01400034014000040040000800404A
:10183000000C0040F0B50C461546002200210026A1
:10184000078C4FF6FF6C07EA0C070784828B018C2C
:101850004FF6FF7707EA04264FF60C773A404FF62B
:10186000FF7707EA03172F433A43114FB8420ED0D0
:10187000104FB8420BD0B0F1804F08D00E4FB84295
:1018800005D00E4FB84202D00D4FB84206D14FF6E8
:10189000FF57394046F48077394305E04FF2FF5750
:1018A000394044F48077394382830184F0BD0000DD
:1018B000002C0140003401400004004000080040BA
:1018C000000C0040F0B50C46154600220021002611
:1018D000078C4EF6FF7C07EA0C070784828B018C8D
:1018E0004FF6FF7707EA043640F6FF473A404FF6D7
:1018F000FF7707EA05273A434FF6FF7707EA0337F2
:101900003A43114FB8420ED0104FB8420BD0B0F14D
:10191000804F08D00E4FB84205D00E4FB84202D0CB
:101920000D4FB84206D14DF6FF77394046F4805747
:10193000394305E047F6FF57394044F480573943AF
:1019400082830184F0BD0000002C0140003401407E
:101950000004004000080040000C004030B589B091
:101960000025002401210846FFF73EFC0121042048
:10197000FFF75AFC0C20ADF8200018208DF823004A
:1019800003208DF8220008A92048FEF7F8FD40F258
:10199000E730ADF818000020ADF81400ADF81A00DB
:1019A000ADF8160005A94FF0804000F071FB6020F3
:1019B000ADF804000120ADF80600ADF80A50002093
:1019C000ADF80C0001A94FF0804000F089FA082121
:1019D000C80600F0D5FA0120ADF80600ADF80A40BF
:1019E0000020ADF80C0001A94FF0804000F0D2FAC1
:1019F0000821C80600F00CFB0121880700F0D4F88C
:101A00000121880700F0DFF809B030BD000801406F
:101A100000B589B001210220FFF7E6FB0121042077
:101A2000FFF702FC01A8FEF781FEC020ADF804001C
:101A300004208DF8070003208DF8060001A9254831
:101A4000FEF79DFD4FF4A060FFF7B6FB1D208DF85B
:101A5000080001208DF8090003208DF80A000120FC
:101A60008DF80B0002A8FFF76FFB1B4800F0B8F8D9
:101A700006A800F05FFB0020ADF818004FF6FF70DD
:101A8000ADF81C000020ADF81E00ADF81A0006A944
:101A9000114800F0FDFA0A231A4603210E4800F00F
:101AA00093F903A800F00AFA0620ADF8140003A980
:101AB000094800F0ADF90121074800F081F8012242
:101AC0001146054800F003FA0121034800F07BF8B5
:101AD00009B000BD000801400004004000B589B015
:101AE00001210420FFF780FB01210820FFF79CFB68
:101AF00001A8FEF71BFEC020ADF8040004208DF8FD
:101B0000070003208DF8060001A92548FEF737FDE0
:101B10004FF4A060FFF750FB1E208DF80800012055
:101B20008DF8090003208DF80A0001208DF80B00C4
:101B300002A8FFF709FB1B4800F052F806A800F0C6
:101B4000F9FA0020ADF818004FF6FF70ADF81C0050
:101B50000020ADF81E00ADF81A0006A9114800F0EB
:101B600097FA0A231A4603210E4800F02DF903A81C
:101B700000F0A4F90620ADF8140003A9094800F00C
:101B800047F90121074800F01BF8012211460548DA
:101B900000F09DF90121034800F015F809B000BDDF
:101BA000000C01400008004021B1028842F0800290
:101BB000028004E002884FF67F731A40028070476B
:101BC000CA430282704721B1028842F001020280BA
:101BD00004E002884FF6FE731A400280704700004E
:101BE00010B504466848844208D10121C014FFF7AB
:101BF0002BFB0021E014FFF727FBC4E0B4F1804F7A
:101C000008D101210846FFF7FFFA00210120FFF764
:101C1000FBFAB8E05D48844208D101210220FFF7B9
:101C2000F3FA00210220FFF7EFFAACE058488442B3
:101C300008D101210420FFF7E7FA00210420FFF773
:101C4000E3FAA0E05348844208D101210820FFF7BD
:101C5000DBFA00210820FFF7D7FA94E04E488442CF
:101C600008D101211020FFF7CFFA00211020FFF743
:101C7000CBFA88E04948844208D101212020FFF7AF
:101C8000C3FA00212020FFF7BFFA7CE044488442D9
:101C900008D101214014FFF7D7FA00216014FFF7A3
:101CA000D3FA70E03F48844209D10121C804FFF70C
:101CB000CBFA00214FF40020FFF7C6FA63E03A4860
:101CC000844209D101210805FFF7BEFA00214FF433
:101CD0008010FFF7B9FA56E03448844209D1012157
:101CE0004805FFF7B1FA00214FF40010FFF7ACFAF6
:101CF00049E02F48844208D101214020FFF784FAAF
:101D000000214020FFF780FA3DE02A48844208D1B4
:101D100001218020FFF778FA00218020FFF774FA74
:101D200031E02548844208D101218015FFF76CFA83
:101D30000021A015FFF768FA25E02048844209D168
:101D400001210804FFF780FA00214FF48030FFF7EB
:101D50007BFA18E01A48844209D101214804FFF7B0
:101D600073FA00214FF40030FFF76EFA0BE01548CC
:101D7000844208D101218804FFF766FA00214FF45C
:101D80008020FFF761FA10BD002C014000040040E4
:101D900000080040000C004000100040001400400B
:101DA00000340140004C014000500140005401400B
:101DB00000180040001C004000200040004001408E
:101DC0000044014000480140F0B50C4615461E464F
:101DD0000021002200230189028B038C4FF6F87743
:101DE000394021434FF6FC473A4040F201173A434D
:101DF0004FF6DD773B404FF6FF7707EA06172F4394
:101E00003B43018102830384F0BD0146888C704707
:101E100070B505460C46244885420ED023488542BD
:101E20000BD0B5F1804F08D02148854205D021481C
:101E3000854202D02048854200D100E000BF2088C2
:101E400050B92389A28861882846FFF767FCE1889A
:101E5000284600F0F1F825E0208804280AD12389DB
:101E6000A28861882846FFF799FCE188284600F09F
:101E7000ECF817E0208808280AD12389A288618815
:101E80002846FFF7D7FCE188284600F0EBF809E088
:101E90002389A28861882846FFF714FDE188284637
:101EA00000F0E9F870BD0000002C01400034014052
:101EB0000004004000080040000C004000210180A8
:101EC0004180012181800021C180018170471AB1C8
:101ED00083890B43838102E083898B43838170472D
:101EE00070B5002400220023058C4FF6FF663540B4
:101EF0000584028C8388848B4FF68F752C404FF6B7
:101F0000FC752C400D882C434FF6FF552A400D8957
:101F10004FF6FF7606EA05252A434D8806EA052591
:101F20002A43154DA84202D0144DA8421DD14FF2AC
:101F3000FF752A404D894FF6FF7606EA05252A43AC
:101F40004FF6FF352A408D8806EA05252A434EF6CE
:101F5000FF752B404DF6FF752B408D8906EA051560
:101F60002B43CD8906EA05152B4383808483CD88D6
:101F70008587028470BD0000002C014000340140C0
:101F80000A460021818B4FF6F77319401143818374
:101F90007047000070B5002200230024058C4EF627
:101FA000FF7635400584038C8488828B48F6FF7564
:101FB0002A404FF6FF452A400D884FF6FF7606EA85
:101FC00005252A434DF6FF752B400D8906EA053598
:101FD0002B434D8806EA05352B430B4DA84202D012
:101FE0000A4DA84208D14BF6FF752C408D894FF65B
:101FF000FF7606EA85152C4384808283CD88A0F87D
:102000004050038470BD0000002C014000340140AA
:102010000A460021818B4FF2FF7319404FF6FF7380
:1020200003EA022319438183704781877047A0F830
:102030004010704781847047028B4FF6F3731A404B
:102040000283028B0A4302837047028B4FF2FF33F5
:102050001A400283028B4FF6FF7303EA01231A43EF
:1020600002837047828B4FF6F3731A408283828B10
:102070000A4382837047828B4FF2FF331A40828378
:10208000828B4FF6FF7303EA01231A438283704762
:10209000002202881D4B98420ED01D4B98420BD057
:1020A000B0F1804F08D01B4B984205D01A4B984294
:1020B00002D01A4B984204D14FF68F731A404B88C6
:1020C0001A43174B984207D0164B984204D04FF64C
:1020D000FF431A40CB881A4302808B8883850B8884
:1020E00003850A4B98420BD0094B984208D00E4BFF
:1020F000984205D00D4B984202D00D4B984201D129
:102100000B7A03860123838270470000002C014074
:10211000003401400004004000080040000C004072
:102120000010004000140040004001400044014005
:10213000004801404FF6FF71818000210180C1807D
:10214000418001727047000010B5044621460548E1
:1021500000F08CF800BF4021024800F075F801281B
:10216000F9D110BD0038014010B5002408212448E1
:1021700000F06AF830B10821214800F04DF82048FD
:1021800000F06FF820211E4800F05EF8002836D0DD
:1021900040F225511A4800F048F81948001D0088FF
:1021A000C4B2242C05D1012016490870002016491C
:1021B000086014480078012803D1144812490968BE
:1021C00044541048007801280AD1232C08D1104922
:1021D000087000200B4908700B4800680D49086022
:1021E00009480068401C08490860084600685028F3
:1021F00005DB00200860034908700549087010BD20
:10220000004800401C000020180000200C010020A5
:10221000140000202000002001F40072B2F5007FBD
:1022200000D100BFCA430280704710B500220023CE
:1022300040F66A14A14200D100BF0A120124944062
:10224000A3B2DC43048010BD02460020B1F5007F3C
:1022500000D100BF13880B400BB1012000E000202B
:10226000704701468888C0F308007047C1F3080230
:102270008280704700BFFEE7490050EAC12018BFC6
:1022800004204A0D18BF40F0010040F2FF72B2EB8B
:10229000515F08BF40F00200012808BF05207047C9
:1022A0002DE9F0414F1E00EBC7010446D1E90001C2
:1022B00015461E4637F006020DD02A46334603F077
:1022C000EBF87F1E04EBC703D3E9002302F0DCFE2A
:1022D00037F00602F1D1022F25D0042F13D0062F9C
:1022E00018BFBDE8F0812A46334603F0D5F8D4E99B
:1022F0000A2302F0C9FE2A46334603F0CDF8D4E99A
:10230000082302F0C1FE2A46334603F0C5F8D4E99B
:10231000062302F0B9FE2A46334603F0BDF8D4E99D
:10232000042302F0B1FE2A46334603F0B5F8D4E99F
:10233000022302F0A9FE2A46334603F0ADF8D4E9A1
:102340000023BDE8F04102F09FBE012203F04FBF21
:1023500002F09ABE002213461046114602F044BF16
:10236000024A0020110703F042BF000001FDFFFFF9
:102370002DE9FE4F06460F460025684601F084F918
:10238000002442E056F8240057F82410A0EB010A7C
:10239000BAF1000F01DB514601E0CAF10001084625
:1023A00003F020FD83464FF08F4103F0E9FB8046A8
:1023B0005DF82400002103F0A5FC16D05DF8241080
:1023C000404603F0DDFB82464FF07E5103F068FE8D
:1023D000814629F0004A0F48416A504603F02EFE1C
:1023E00012D20120A04005430EE00A48C1694046D0
:1023F00003F024FD05D30748016A404603F01EFEA2
:1024000002D20120A0400543641C032CBADB2846FD
:10241000BDE8FE8FA46200082DE9F04D8D4F21F03C
:10242000004A86B005460C46BA452ADBAAEB0700EF
:1024300028430AD08848824501DC1AD1CDB106B0C4
:102440002846BDE8F04DFFF780BF844A844B2846FC
:1024500003F022F807460E46824A834B284621465F
:1024600003F01AF806B03A463346BDE8F04D02F0E4
:102470000BBE0120FDF7A1FF06B0BDE8F04DFFF750
:1024800069BF7A48824542DABAF1795F0BDA2846A9
:10249000FFF7F2FE042808BFFFF762FF284606B0E8
:1024A0002146BDE8F08D2A460B46104602F0F4FFA7
:1024B000834602466E480E460B4606217844FFF7D7
:1024C000EFFE5A46334602F0E7FF804669488A46E7
:1024D0005A46334604217844FFF7E2FE5A46334613
:1024E00002F0DAFF00223B4602F0CEFD02460B4628
:1024F0004046514602F078FE2A46234602F0CCFFC1
:1025000006B02A462346BDE8F04D02F0BDBD284680
:1025100024F0004100223D463B4603F0BBF84FF05B
:10252000FF3203F064FE0646024653480F460B4650
:1025300006217844FFF7B4FE32463B4602F0ACFF7A
:10254000CDE900014D4832463B4604217844FFF76F
:10255000A7FE32463B4602F09FFF00222B4602F0C8
:1025600093FD834602913046394602F035FD8046A0
:1025700043480D46504517DCDDE900015A46029BF1
:1025800002F032FE42462B4602F086FF42462B46C0
:1025900002F07AFD012203F02AFE304A304B03F0AC
:1025A0006BF9304A304B4CE04FF0000A52460B4674
:1025B000404602F069FDCDE9031052462B46104615
:1025C000194602F069FF32463B4603F063F8DDE945
:1025D000033202F009FE06460F46DDE900015A46C5
:1025E000029B02F001FE83460091012230463946EB
:1025F00003F0FDFD194A1A4B03F04CF806460F464E
:1026000001224046294603F0F2FD5A46009B02F0A3
:1026100043FF32463B4603F02FF906460F460122A0
:102620005046294603F0E3FD0E4DDFF858802A4658
:10263000434603F02FF832463B4603F02BF82A4678
:10264000434603F027F8002CD8BF81F0004106B0C4
:10265000BDE8F08D0000F03F0000F07F075C143310
:1026600026A6913C182D4454FB21F93F0000E03F81
:10267000084A00001E4A000092490000A8490000D4
:102680003333EF3FFB21E93F2DE9F84F04460D4678
:1026900021F0004000917349814211DC7249884267
:1026A00001DC06D12CB120462946BDE8F84FFFF7E2
:1026B0004CBE6E48002DCCBF6D496E49BDE8F88F09
:1026C0006D49814211DD6D498142D8BF4FF0FF361F
:1026D0006DDD20462946FFF7CFFD042808BFFFF730
:1026E0003FFE20462946BDE8F88F6549654F25F035
:1026F0000045814233DD6449814219DD00263246BE
:102700004FF080432046294602F0BEFC80468A46B0
:1027100001222046294603F06AFD00223B4603F0D1
:10272000ABF84246534602F05FFD04460D463EE0DC
:1027300001260022BA463B462046294602F0A4FC68
:1027400080460F46002253462046294603F094F85F
:1027500042463B4602F048FD04460D4627E04B4901
:1027600081421BDDDFF828A10226002253462046C5
:10277000294602F091FE00223B4602F085FC80468D
:102780000F46002253462046294603F075F842467C
:102790003B4602F029FD04460D4608E0032622468A
:1027A0002B4600203B4902F01FFD04460D46224601
:1027B0002B461046194602F06FFE8B4682460246B3
:1027C0000B4602F069FE07460246334888460B4630
:1027D00006217844FFF764FD52465B4602F05CFE3A
:1027E00082462E488B463A46434605217844FFF7F9
:1027F00057FD3A46434602F04FFE02460B46002E76
:10280000504659460CDA02F03FFC22462B4602F0B5
:1028100043FE01B022462B46BDE8F04F02F03ABF1E
:1028200002F032FC22462B4602F036FE1C4A7A4465
:1028300002EBC603D3E9002303F01EF822462B4621
:1028400003F01AF8174A7A4402EBC603D3E90023CF
:1028500002F020FF009A002AB8BF81F00041BDE8D5
:10286000F88F0000000010440000F07F182D445441
:10287000FB21F93FFB21F9BF0000DC3F0000203EB7
:102880000000F33F0000F03F0000E63F00800340FF
:102890000000F83F0000F0BFAA47000068470000B2
:1028A00006470000CE4600002DE9F04D9446CCF1DD
:1028B000000423F000464CEA0404524F46EAD47464
:1028C0009A46884621F00042BC4206D8454240EA7A
:1028D000050442EAD474BC4204D9BDE8F04D624616
:1028E000FFF736BDAAF14055A5F17F6555EA0C0406
:1028F0000BD0022404EAAA74434DDFF810E144EA45
:10290000D87452EA000B04D00CE0BDE8F04DFFF79C
:10291000BBBE002C14BF012CBDE8F08D022C30D0C2
:10292000032C32D056EA0C0B0AD0BE4220D1BA4258
:1029300009D126F0804622F080423346114617E046
:1029400000291ADB25E0DFF8C8B0FB44002C04BFE7
:10295000DBE90001BDE8F08D012C02BFDBE90001DD
:1029600081F00041BDE8F08D022C0AD0032C0CD080
:10297000BA4212D1B8F1000F0BDA23482549BDE85D
:10298000F08D28462449BDE8F08D28467146BDE803
:10299000F08D1D482149BDE8F08D921B12153C2A8F
:1029A000C4BF19481D490EDCBAF1000FBEBF12F1B9
:1029B0003C0F0020014606DB624602F015FC21F0C8
:1029C0000041FFF761FE002C08BFBDE8F08D012C2F
:1029D00004BF81F00041BDE8F08D114A114B022C7B
:1029E00007D002F049FF2A46BDE8F04D0A4B02F03D
:1029F00043BF02F041FF2A46BDE8F04D064B02F00E
:102A000049BE00000000F07F182D4454FB2109C08E
:102A100062460000FB21F9BFFB210940FB21F93F81
:102A2000075C143326A6A13C2DE9F0410446E0786A
:102A300000F0C006E07800F03F05607800F001008B
:102A400098B1EF102846E91705EB5171C910A5EBB5
:102A5000C101491C01F0FF080B48006820B10A4879
:102A6000414602683846904700BF607800F0080091
:102A700030B10548406818B1B011034A5168884721
:102A80000020BDE8F0810000DC01002010B5044604
:102A900003E04FF47A7000F00FF82000A4F1010475
:102AA000F7D110BD0349088000BF024909880029F9
:102AB000FBD1704724000020014605E0002001E022
:102AC000421CD0B20A28FBDB0A00A1F10101F5D1BA
:102AD000704738B5044664B120208DF800002820E6
:102AE0008DF8010030208DF8020038208DF80300A9
:102AF00004E0A32204216846FDF7D8FB6A460421BE
:102B000040F69E2002F06EF901F058FD38BD00003D
:102B10003EB5044602208DF80000CA208DF8010061
:102B2000E3208DF8020009208DF803006A46042195
:102B3000682002F057F9A3208DF8000004F040004F
:102B400048B1C0208DF80100C8208DF80200C220D5
:102B50008DF8030006E0A3208DF801008DF8020037
:102B60008DF8030004F4C07048B1C4208DF804004F
:102B7000CC208DF80500C6208DF8060006E0A320C5
:102B80008DF804008DF805008DF80600A3208DF85F
:102B900007008DF808008DF809006A460A2140F602
:102BA000A72002F01FF904F0030018B120208DF8CF
:102BB000000002E0D8208DF800006A46012140F6AE
:102BC000B62002F00FF904F0200018B1012000F047
:102BD000ADF802E0002000F0A9F804F4C07008B3DA
:102BE00004F4807060B1B2208DF800008B208DF865
:102BF0000100B6208DF802009B208DF803000BE049
:102C0000B0208DF8000080208DF80100B4208DF8F0
:102C1000020090208DF803006A46042140F6A220AD
:102C200002F0E0F804F0010020B3F8208DF8000075
:102C30006A4601214FF40B6002F0D4F8FA21072014
:102C400000F02CFC072000F0F3FB012000F013FC47
:102C5000642000F0F3FC4FF4FA7000F002FDC8218C
:102C6000304800F0A3FB282000F0BCFB0A2000F055
:102C7000CCFB08E0D8208DF800006A4601214FF413
:102C80000B6002F0AFF804F0020018B1D9208DF803
:102C9000000002E0D8208DF800006A46012140F2D1
:102CA0003D7002F09FF804F0040018B1012000F01C
:102CB00069F802E0002000F065F804F0100018B197
:102CC0000120FFF706FF02E00020FFF702FF44F0BB
:102CD00008001549488101F071FC002012498873F1
:102CE00004F0400018B10846807B801D887304F40E
:102CF000C07020B10C48807B801D0B49887304F0A4
:102D0000140020B10848807B10300749887304F014
:102D1000030020B10448807B001D03498873002014
:102D20003EBD000009E3CA02DC0100203EB50446B6
:102D30006CB10EA1D1E900208968CDE90020029193
:102D40006A4609214FF4976002F04CF83EBD0AA292
:102D5000D2E900109268CDE9010200916A4609218A
:102D60004FF4976002F03EF8F0E70000B8AAB38D88
:102D7000B4980D355D000000B8AAAAAAB088C3C5F2
:102D8000C700000038B5044664B1C0208DF80000CB
:102D9000C2208DF80100C4208DF80200C6208DF8F5
:102DA000030004E08B2204216846FDF77FFA6A469F
:102DB000042140F6982002F015F801F0FFFB38BD21
:102DC00010B5C8234FF48062024940F6F63001F096
:102DD00089FA10BDCC6200082DE9F04F8DB007468E
:102DE000884615469946DDE9166B002400203080A0
:102DF0006B49887B5A4605A901F040FB18B1601E5B
:102E00000DB0BDE8F08F6648807A00F0140000280D
:102E100067D09DF8140000069DF8151040EA0140A7
:102E20009DF8161040EA01209DF81710084328600D
:102E30009DF8180000069DF8191040EA01409DF821
:102E40001A1040EA01209DF81B10084368609DF8A5
:102E50001C0000069DF81D1040EA01409DF81E1060
:102E600040EA01209DF81F100843A8609DF820004B
:102E700000069DF8211040EA01409DF8221040EA2A
:102E800001209DF823100843E86004F11000C4B24B
:102E9000286800140190686800140290A868001463
:102EA0000390E8680014049001984043029901FBE4
:102EB0000100039901FB0100049901FB010ABAF129
:102EC000706F02DBBAF1885F05DD01F077FB00204F
:102ED0003080401E94E7B6F9000040F480703080E6
:102EE00000BF2F48807A00F0400020B305A9601C85
:102EF000085C095D40EA012000B2A8F8000005A9BD
:102F0000E01C095C05AAA01C105C41EA002000B28C
:102F1000A8F8020005A9601D095C201D105C41EAAB
:102F2000002000B2A8F80400A01DC4B2B6F9000049
:102F300040F0080030801A48408900F4C07008B39F
:102F400005A9601C085C095D40EA012000B23880D8
:102F500005A9E01C095C05AAA01C105C41EA002040
:102F600000B2788005A9601D095C201D105C41EA53
:102F7000002000B2B880A01DC4B2B6F9000040F035
:102F8000700030800648807A00F0030018B105A96F
:102F90000819FFF749FD484600F0D0FB00202FE755
:102FA000DC01002070B588B0064601A800F0EEFFF5
:102FB000BDF804000021C90341EA5045C403444858
:102FC000007A00F0030056F8200005904048007A8F
:102FD00000F0040010B10598404205903C48007A8A
:102FE000C0F3C10056F8200006903948007A00F07E
:102FF000200010B10698404206903548007AC0F390
:10300000811056F8200007903148008900F4807044
:1030100010B10798404207900598C117A0FB042300
:1030200001FB043100FB0510810041EA927005901C
:103030000698C117A0FB042301FB043100FB051017
:10304000810041EA927006900798C117A0FB042303
:1030500001FB043100FB0510810041EA92700790EA
:103060000598000E8DF808000598000C8DF80900F1
:103070000598000A8DF80A000598C0B28DF80B007B
:103080000698000E8DF80C000698000C8DF80D00C7
:103090000698000A8DF80E000698C0B28DF80F0051
:1030A0000798000E8DF810000798000C8DF811009D
:1030B0000798000A8DF812000798C0B28DF8130027
:1030C00002AA0C214FF4257001F08CFE08B070BDEF
:1030D000DC01002030B585B0044616A207CA02AB59
:1030E00007C3C82C03DD4FF0FF3005B030BDC8204A
:1030F00090FBF4F0401E85B2280A8DF80000E8B27B
:103100008DF801006A46022140F2162001F06AFEA5
:1031100010B14FF0FF30E8E702AA0C2140F6C120C1
:1031200001F060FE10B14FF0FF30DEE7044884810B
:103130000020DAE7FEF2ABC4AAF1DFDFBBAFDFDFCE
:10314000DC0100201FB504464848007A00F0030067
:1031500054F8200001904548007A00F0040010B1B6
:103160000198404201904148007AC0F3C10054F8F0
:10317000200002903D48007A00F0200010B1029833
:10318000404202903948007AC0F3811054F8200080
:1031900003903648008900F4807010B103984042D3
:1031A00003903349019880FB0101800F40EA8100C0
:1031B00001902F49029880FB0110820042EA917031
:1031C00002902B49039880FB0110820042EA917023
:1031D00003900198000E8DF800000198000C8DF806
:1031E00001000198000A8DF802000198C0B28DF824
:1031F00003006A4604214FF4747001F0F3FD18B126
:103200004FF0FF3004B010BD0298000E8DF80000A2
:103210000298000C8DF801000298000A8DF8020057
:103220000298C0B28DF803006A4604214FF475700D
:1032300001F0D8FD10B14FF0FF30E3E70398000E26
:103240008DF800000398000C8DF801000398000A27
:103250008DF802000398C0B28DF803006A4604217D
:103260004FF4767001F0BEFDCCE70000DC010020D9
:1032700009E3CA0210B586B0044647A0006803906F
:1032800046A00068029046A00068019045A0006832
:10329000009004F0030003A9085C8DF8140003A853
:1032A000C4F3C101405C8DF8150003A8C4F381117B
:1032B000405C8DF8160004F0030002A9085C8DF84C
:1032C000100002A8C4F3C101405C8DF8110002A8EF
:1032D000C4F38111405C8DF8120005AA032140F26D
:1032E000264001F07FFD18B14FF0FF3006B010BD51
:1032F00004AA032140F22A4001F074FD10B14FF0FE
:10330000FF30F3E7019805900098049004F0040062
:1033100058B19DF8140040F001008DF814009DF89C
:10332000100040F001008DF8100004F0200058B1AA
:103330009DF8150040F001008DF815009DF8110072
:1033400040F001008DF8110004F4807058B19DF830
:10335000160040F001008DF816009DF8120040F0B4
:1033600001008DF8120005AA03214FF4886001F0D6
:1033700039FD10B14FF0FF30B8E704AA032140F245
:10338000314001F02FFD10B14FF0FF30AEE706489D
:1033900004810020AAE700004CCD6C000CC92C0071
:1033A0003656760026466600DC010020F8B5054654
:1033B0000E464FF47A7095FBF0F000FB06F4200EF9
:1033C0008DF80000200C8DF80100200A8DF8020015
:1033D000E0B28DF803006A4604214FF4AE7001F0AC
:1033E00001FDF8BD38B50446052094FBF0F084B229
:1033F00020128DF80000E0B28DF801006A4602212B
:103400004FF4AD7001F0EEFC38BD38B50446052030
:1034100094FBF0F084B220128DF80000E0B28DF839
:1034200001006A4602214FF4AC7001F0DBFC38BDAC
:1034300038B504460020009004F0010020B19DF84A
:10344000000040F03000009004F0020020B19DF830
:10345000000040F00C00009004F0040020B19DF842
:10346000000040F0030000906A4601214FF4A47070
:1034700001F0B8FC38BD38B50446012C01DA01244E
:1034800002E0042C00DD0424601EC0B200906A46F5
:10349000012140F24F1001F0A5FC38BD2DE9FC4799
:1034A00006460F4606F0070010B1B7F5C86F03DDFA
:1034B0004FF0FF30BDE8FC87384602F0ABFC814698
:1034C000594902F05DFB8046684600F039FD9DF8E1
:1034D0000000022806D0042816D0082826D010287C
:1034E00048D135E04FF08D41404602F0DBFC81468B
:1034F00002F058FC84B24D49404602F0D3FC8146AC
:1035000002F050FC85B238E04FF08C41404602F0AA
:10351000C9FC814602F046FC84B24549404602F0AF
:10352000C1FC814602F03EFC85B226E04FF08B41A3
:10353000404602F0B7FC814602F034FC84B23D49BB
:10354000404602F0AFFC814602F02CFC85B214E04C
:103550004FF08A41404602F0A5FC814602F022FC71
:1035600084B23549404602F09DFC814602F01AFCC7
:1035700085B202E04FF0FF309CE700BF20128DF8CB
:103580000400E0B28DF8050028128DF80600E8B2BC
:103590008DF8070006F00100A0B101AA02214FF446
:1035A000EA7001F01FFC10B14FF0FF3082E70DF11F
:1035B000060202214FF4927001F014FC10B14FF09A
:1035C000FF3077E706F00200A0B101AA02214FF414
:1035D000EC7001F007FC10B14FF0FF306AE70DF11D
:1035E000060202214FF4947001F0FCFB10B14FF081
:1035F000FF305FE706F00400A0B101AA02214FF4FA
:10360000EE7001F0EFFB10B14FF0FF3052E70DF11B
:10361000060202214FF4967001F0E4FB10B14FF066
:10362000FF3047E7002045E70000484300004046E0
:103630000000C045000040450000C04438B50446C5
:10364000052094FBF0F085B228128DF80000E8B256
:103650008DF801006A4602214FF4EF7001F0C2FBC1
:1036600038BD38B50446052094FBF0F085B2281229
:103670008DF80000E8B28DF801006A4602214FF48F
:10368000ED7001F0AFFB38BD7CB5054628494968AF
:10369000087801AB04220D2100F096FB08B1072049
:1036A0007CBD9DF80700C0F301109DF8041001F0E7
:1036B000E00140EAE1008DF800009DF80700C0F34A
:1036C00081009DF8051001F0E00140EAE1008DF86D
:1036D00001009DF8070000F003009DF8061001F0BE
:1036E000E00140EAE1008DF8020000241CE01DF832
:1036F000040018B9002045F8240013E00D4845F8EF
:10370000240006E055F824000B4902F0CBFB45F8F5
:1037100024001DF80400401EC0B20DF8040000286B
:10372000F0D100BF601CC4B2032CE0DB0020B7E77F
:10373000A40000207B14AE3E1D5A843F7047000059
:103740002DE9F04F87B005460C46914601208DF8D3
:10375000100000208DF81100FE4A1268917CFD4A8D
:103760005268107804AB022200F041FB20B14FF008
:10377000FF3007B0BDE8F08FC820FFF787F90020C1
:103780008DF81000F34A1268D17BF24A5268107823
:1037900004AB012200F02BFB10B14FF0FF30E8E743
:1037A000EC4A12685179EB4A5268107804AB012256
:1037B00000F01DFB10B14FF0FF30DAE7E54A126868
:1037C000917CE44A5268107804AB012200F00FFBB0
:1037D00010B14FF0FF30CCE7DE4A1268D17DDD4AF0
:1037E0005268107804AB012200F001FB10B14FF0D9
:1037F000FF30BEE7D74A12681179D64A526810786E
:1038000004AB012200F0F3FA10B14FF0FF30B0E743
:103810000C208DF81000CF4A12681179CD4A5268F9
:10382000107804AB012200F0E2FA10B14FF0FF3043
:103830009FE70F20FFF72AF9C648806A407A8DF883
:103840001000C44A12689178C24A5268107804ABDA
:10385000012200F0CCFA10B14FF0FF3089E7BD48EB
:10386000806A007A8DF81000BA4A12685178B94A15
:103870005268107804AB012200F0B9FA10B14FF091
:10388000FF3076E7B9F1000F07D0B248806A807A3E
:1038900040F0E0008DF8100004E0AE48806A807AC5
:1038A0008DF81000AB4A12689179AA4A52681078D4
:1038B00004AB012200F09BFA10B14FF0FF3058E743
:1038C000B9F1000F07D0A348806AC07A40F0E00049
:1038D0008DF8100003E0A048C07A8DF810009D4AD2
:1038E0001268D1799B4A5268107804AB012200F02B
:1038F0007EFA10B14FF0FF303BE7B9F1000F02D074
:10390000C820FFF7C3F840208DF81000914A1268D4
:103910001179904A5268107804AB012200F067FADE
:1039200010B14FF0FF3024E778208DF81000894A5D
:1039300012685179874A5268107804AB012200F06E
:1039400056FA10B14FF0FF3013E783498889FFF72B
:103950009DF800208DF810007E4A126851797D4A4A
:103960005268107804AB012200F041FA10B14FF018
:10397000FF30FEE6774A1268917A764A52681078EC
:1039800004AB022200F020FA10B14FF0FF30F0E655
:103990009DF811009DF8101040EA012B0C209BFBB4
:1039A000F0F0C6B20020A86068602860A060606087
:1039B0002060824665E0674A1268D17A654A52689B
:1039C000107804AB0C2200F0FFF910B14FF0FF307B
:1039D000CFE69DF811009DF8101040EA012000B2DA
:1039E000ADF808009DF813009DF8121040EA012080
:1039F00000B2ADF80A009DF815009DF8141040EAD9
:103A0000012000B2ADF80C00BDF908102068084490
:103A10002060BDF90A10606808446060BDF90C10B0
:103A2000A0680844A0609DF817009DF8161040EAB1
:103A3000012000B2ADF800009DF819009DF81810A3
:103A400040EA012000B2ADF802009DF81B009DF88D
:103A50001A1040EA012000B2ADF80400BDF90010D0
:103A6000286808442860BDF9021068680844686046
:103A7000BDF90410A8680844A8600AF1010000F02C
:103A8000FF0AB24597DB3448D0F800C02868C11758
:103A9000090441EA10410704624600233846FCF756
:103AA000B5FB32460023CDE90201FCF7AFFB2860ED
:103AB0002948D0F800C06868C117090441EA1041DC
:103AC0000704624600233846FCF7A0FB3246002379
:103AD000CDE90201FCF79AFB68601F48D0F800C0EE
:103AE000A868C117090441EA10410704624600238F
:103AF0003846FCF78BFB32460023CDE90201FCF788
:103B000085FBA8601448D0F804C02168C8170004D9
:103B100040EA11480F046246002338464146FCF74C
:103B200075FB32460023CDE90201FCF76FFB2060F4
:103B30000948D0F804C06068C117090441EA10417F
:103B40000704624600233846FCF760FB3246002338
:103B500004E00000A4000020A4620008CDE90201F6
:103B6000FCF754FB60601148D0F804C0A068C1178E
:103B7000090441EA10410704624600233846FCF775
:103B800045FB32460023CDE90201FCF73FFBA06074
:103B9000A068002804DDA068A0F58030A06003E0E4
:103BA000A06800F58030A0600020E2E5A462000873
:103BB0002DE9FC5F06460F4600253D494968087817
:103BC00001AB03220D2100F0FFF810B10720BDE882
:103BD000FC9F9DF8040000F01F008DF804009DF884
:103BE000050000F01F008DF805009DF8060000F0AC
:103BF0001F008DF80600002456E056F8240057F800
:103C00002410A0EB010BBBF1000F01DB594601E0D2
:103C1000CBF10001084602F0E5F84FF08F4100902B
:103C200001F0AEFF814601A8005D68B32149086834
:103C300002F0F0F8834659461F4801F0A1FF804684
:103C400004E01E49404602F02DF9804601A8005DBF
:103C5000401EC0B201A908550028F2D1414648468D
:103C600001F08EFF83464FF07E5102F019FA824632
:103C70002AF0004B0F488169584602F0DFF912D252
:103C80000120A04005430EE00A480169484602F0C1
:103C9000D5F805D307484169484602F0CFF902D26A
:103CA0000120A0400543641C032CA6DB28468EE7B8
:103CB000A4000020A462000800B04C4554E3853FF6
:103CC00008B501210820FDF7AFFA4FF44070ADF8B8
:103CD000000002208DF8020014208DF803006946D0
:103CE0000148FCF74CFC08BD000C01402DE9F041F7
:103CF00005460F4614461E46FCF7F6FD10B9002097
:103D0000BDE8F081002141EA4501C8B2FCF7BEFDE3
:103D1000FCF738FE18B9FCF717FE0020F0E738462C
:103D2000FCF7B4FDFCF72EFEFCF7DEFD012101EBF4
:103D30004501C8B2FCF7AAFDFCF724FE0CE0FCF735
:103D400079FD3070012C02D1FCF756FD01E0FCF743
:103D500035FD761C601EC4B2002CF0D1FCF7F4FDDA
:103D60000120CDE72DE9F04105460E46174698465D
:103D7000FCF7BAFD10B90020BDE8F081002141EA4E
:103D80004501C8B2FCF782FDFCF7FCFD18B9FCF751
:103D9000DBFD0020F0E73046FCF778FDFCF7F2FD94
:103DA00000240BE018F80400FCF770FDFCF7EAFDB6
:103DB00018B9FCF7C9FD0020DEE7641CBC42F1DB4A
:103DC000FCF7C2FD0120D7E72DE9F04104460D467E
:103DD00016461F463B46324629462046FFF786FFD9
:103DE00010B10020BDE8F0814FF0FF30FAE72DE977
:103DF000F04104460D4616461F463B4632462946CC
:103E00002046FFF7AFFF10B10020BDE8F0814FF072
:103E1000FF30FAE770B50546284600F00FF8044673
:103E2000E81C00F00BF844EAC00084B2A81D00F0C2
:103E300005F844EA801084B2204670BD014691F92D
:103E40000020002A01DD00201EE091F90020002A58
:103E500001DA042018E091F90120002A01DD012097
:103E600012E091F90120002A01DA05200CE091F915
:103E70000220002A01DD022006E091F90220002A3A
:103E800001DA062000E0072070474FF4A060FDF73C
:103E900093F9FDF763FDFCF7CDFDFCF7A9FDFDF7F8
:103EA000B7FDFDF71BFEFFF70BFF0A20FEF7FAFD3B
:103EB000FCF7DCFDFDF7C6FB4FF0E020006940F0A9
:103EC00001004FF0E021086101E0FCF7A9FFFCE7E9
:103ED00070B50446002624F00104184890F8240028
:103EE00008B1002070BD1548807A10B94FF0FF303E
:103EF000F8E71248057C807A20401049087408468B
:103F0000007CA04202D04FF0FF3600E0002614B93A
:103F10000A48007D18B1012001F016F802E00020E7
:103F200001F012F83CB100F049FB20B103480574E0
:103F30004FF0FF30D6E73046D4E70000A400002061
:103F400001461148407A30B1012807D0022808D034
:103F500003280CD108E0022008700BE00420087050
:103F600008E00820087005E01020087002E04FF01B
:103F7000FF30704700BF0448C07C18B10878400685
:103F8000000E08700020F4E7A4000020014613484A
:103F9000407A30B1012808D002280AD0032810D175
:103FA0000BE04FF4804008800EE041F69C700880E2
:103FB0000AE04FF48050088006E04FF4006008806B
:103FC00002E04FF0FF30704700BF0448C07C10B1E2
:103FD0000888401008800020F5E70000A4000020B9
:103FE00001460248007C087000207047A4000020B1
:103FF00001460F48007A30B1012807D0022809D0C5
:1040000003280FD10AE0FA2008800EE04FF4FA707E
:1040100008800AE04FF47A70088006E04FF4FA60F6
:10402000088002E00020088000BF00BF0020704729
:10403000A400002001460E48007A30B1012807D0C4
:10404000022808D003280CD108E00A4808600BE0D9
:104050000948086008E00948086005E00848086069
:1040600002E04FF0FF30704700BF0020FBE7000088
:10407000A4000020000003430000834233330342C6
:104080003333834101461248C07A082817D2DFE84B
:1040900000F01704070A0D101318BC20088013E065
:1040A0006220088010E02A2008800DE0142008809B
:1040B0000AE00A20088007E00520088004E000BF2D
:1040C00000BF0020088000BF00BF00207047000034
:1040D000A40000200146064890F8240010B14FF0DB
:1040E000FF3070470248C08908800020F9E70000CF
:1040F000A40000201CB580208DF80000654A1268DD
:10410000917C644A526810786B460122FFF76FFE7B
:1041100010B14FF0FF301CBD6420FEF7B7FC00204B
:104120008DF800005B4A1268917C5A4A52681078F8
:104130006B460122FFF75BFE10B14FF0FF30EAE75C
:10414000544A1268917D534A526810786B46062291
:10415000FFF73AFE10B14FF0FF30DCE79DF80500A5
:10416000C007400F9DF8031001F0010140EA410033
:104170009DF8011001F0010140EA01048CB1012C0D
:1041800003D101214348C17430E0022C03D1002146
:104190004048C1742AE040A0FDF719F84FF0FF3005
:1041A000B9E73C4A1268D1783A4A526810786B46AF
:1041B0000122FFF709FE10B14FF0FF30ABE79DF889
:1041C000000000F00F042CB93D48FDF700F84FF057
:1041D000FF30A0E7042C06D13AA0FCF7F8FF01213C
:1041E0002C48C17402E000212A48C174FF212948EB
:1041F0008172FF2027490872FF2126484172C1724F
:104200004FF6FF71C181FF21017481740121017397
:1042100080F82210002180F82310417501751630B6
:10422000016041608160163880F8241080F8251004
:10423000C1844FF4FA6000F063FC10B14FF0FF301E
:1042400069E7022000F02CFB10B14FF0FF3062E76D
:104250002A2000F0CFFC10B14FF0FF305BE7322096
:1042600000F00AFD10B14FF0FF3054E70020FFF7D7
:104270002FFE10B14FF0FF304DE7002000F052FB51
:1042800010B14FF0FF3046E7002000F043FD002062
:1042900041E70000A4000020556E737570706F72C6
:1042A00074656420736F6674776172652070726FD5
:1042B00064756374207265762025642E0A00000000
:1042C000B86F000848616C662073656E7369746925
:1042D00076697479207061727420666F756E642ED1
:1042E0000A0000002DE9F04385B005460E469046D1
:1042F0009946294890F8250020B14FF0FF3005B0CD
:10430000BDE8F08316B94FF0FF30F8E7002423E052
:10431000281B102801DD102000E0281B87B232196D
:104320003946204600F05EFD10B14FF0FF30E6E761
:1043300001AA3946204600F001F910B14FF0FF30D4
:10434000DDE730193A4601A9FBF784FF10B16FF0A1
:104350000100D4E7E01984B2AC42D9DB4FEA28204F
:104360008DF8000008F0FF008DF801000A4A12687D
:10437000917E094A526810786B460222FFF737FD9A
:1043800010B14FF0FF30BAE70121034880F8251043
:10439000A0F826900020B2E7A400002038B504461B
:1043A000282C02DD4FF0FF3038BDDCB9002000F0D2
:1043B000EBFB00208DF8000007208DF801002E4A4D
:1043C0001268917C2C4A526810786B460222FFF7E3
:1043D0000EFD10B14FF0FF30E6E7002126480175D1
:1043E0000020E1E7012000F0CFFB20208DF8000045
:1043F000012C06D100208DF80100052000F0FAFB09
:1044000017E0052C06DC01208DF80100052000F0E6
:10441000F1FB0EE0142C06DC02208DF801000A20CE
:1044200000F0E8FB05E003208DF80100142000F007
:10443000E1FB9DF80100072101EB8010C0B28DF86F
:1044400001000D4A1268917C0B4A526810786B4645
:104450000222FFF7CCFC10B14FF0FF30A4E7082197
:104460000548817200210173012101750020FFF7C9
:104470002FFD002098E70000A4000020F8B50446B6
:104480000F4616462C4890F8240010B94FF0FF3024
:10449000F8BD2948807A10B94FF0FF30F8E7264A76
:1044A0001268917A244A526810786B460222FFF70C
:1044B0008BFC10B14FF0FF30EAE79DF801009DF84A
:1044C000001040EA0125A54203DA00203070401EAA
:1044D000DEE7194840684088B5EB600F17DD164AE3
:1044E0001268517C144A526810786B460122FFF71B
:1044F0006BFC10B14FF0FF30CAE79DF8000000F0F0
:10450000100020B100F05AF86FF00100C0E7E2B2ED
:10451000094B1B68D97A084B5B6818783B46FFF754
:1045200053FC10B14FF0FF30B2E795FBF4F0401EA2
:1045300030700020ACE70000A4000020F8B504466D
:104540000D46164616B94FF0FF30F8BD1A48807A6E
:1045500010B94FF0FF30F8E720128DF80000E0B2FC
:104560008DF801009DF801002844134949684989E4
:10457000884202DD4FF0FF30E7E70F4A1268117EF4
:104580000D4A526810786B460222FFF730FC10B1DA
:104590004FF0FF30D9E7EAB2074B1B68597D064B55
:1045A0005B6818783346FFF70FFC10B14FF0FF300F
:1045B000CBE70020C9E70000A400002008B5704840
:1045C000807A10B94FF0FF3008BD002000906C4A8F
:1045D0001268D17B6A4A526810786B460122FFF755
:1045E00006FC10B14FF0FF30EEE7654A12685179D2
:1045F000634A526810786B460122FFF7F8FB10B14E
:104600004FF0FF30E0E75E4A126811795C4A526869
:1046100010786B460122FFF7EAFB10B14FF0FF3034
:10462000D2E7574890F82400002853D00C2000907F
:10463000534A12681179524A526810786B46012227
:10464000FFF7D5FB10B14FF0FF30BDE73220FEF78A
:104650001DFAC02000904A48807A00F0010020B185
:104660009DF8000040F020000090454A1268117942
:10467000434A526810786B460122FFF7B8FB10B12D
:104680004FF0FF30A0E73E48407C10B10220009080
:1046900001E0002000903A4A1268D17B384A526803
:1046A00010786B460122FFF7A2FB10B14FF0FF30EC
:1046B0008AE700200090324A12685179304A5268E5
:1046C00010786B460122FFF792FB002855D04FF07F
:1046D000FF3079E704200090294A12681179284AAE
:1046E000526810786B460122FFF781FB10B14FF042
:1046F000FF3069E72248807C20B92148807A00F0A9
:10470000010010B94020009001E0602000901C4A98
:10471000126811791A4A526810786B460122FFF725
:1047200066FB10B14FF0FF304EE73220FEF7AEF9D6
:104730001348407C10B10120009001E0002000905F
:104740000F4A1268D17B0E4A526810786B460122DC
:10475000FFF74DFB10B14FF0FF3035E7084A126804
:104760005179074A52681078054B10330122FFF740
:104770003EFB10B14FF0FF3026E7002024E7000099
:10478000A40000202DE9F04F8DB083460F46022093
:104790000C90424890F8240020B1002000F068F905
:1047A000012600E0002603A8FFF722FC05A8FFF77A
:1047B000C7FB01A8FFF766FC02A8FFF78BFC374890
:1047C00090F80AA004A8FFF70BFC002407E00022E1
:1047D00039465846FEF7B4FF00B902E0641C022CCB
:1047E000F5DB00BF022C01D1002528E0002407E002
:1047F000012206A909A8FEF7A3FF00B902E0641C84
:10480000022CF5DB00BF022C01D1002517E006A920
:104810003846FDF7ADFD00F0FF0809A95846FFF73F
:10482000C7F900F0FF090025B9F1000F01D145F0EB
:104830000105B8F1000F01D145F0020500BFFF20CE
:1048400016490872FF2115484172C1724FF6FF7177
:10485000C181FF218172017401210173BDF80C0037
:1048600000F04EF99DF8140000F01AF8BDF80400AD
:1048700000F0C0F9BDF8080000F0FEF9504600F065
:1048800049FA9DF81000FFF723FB16B1012000F054
:10489000EFF828460DB0BDE8F08F0000A40000201E
:1048A00038B504461E48807A10B94FF0FF3038BD45
:1048B000022C06D0042C07D0082C08D0102C0CD1C8
:1048C00008E0002000900BE00820009008E0102095
:1048D000009005E01820009002E04FF0FF30E6E77E
:1048E00000BF0F48407A9DF80010B0EBE10F01D1F6
:1048F0000020DCE70A4A1268D179094A5268107828
:104900006B460122FFF773FA10B14FF0FF30CEE78C
:104910009DF80000C110024841720020C7E7000066
:10492000A400002038B504465048807CA04201D144
:10493000002038BD002C46D04C4A126811794B4AF1
:10494000526810786B460122FFF73EFA10B14FF023
:10495000FF30EEE79DF8000020F020000090434A71
:1049600012681179414A526810786B460122FFF7AC
:104970003EFA10B14FF0FF30DBE70320FEF786F878
:1049800002200090394890F8220020B19DF80000E4
:1049900040F080000090354890F8230020B19DF849
:1049A000000040F030000090304A1268117D2F4A1C
:1049B000526810786B460122FFF719FA002851D08F
:1049C0004FF0FF30B5E7294A12681179274A52683B
:1049D00010786B460122FFF7F7F910B14FF0FF3066
:1049E000A7E72248807A00F0010028B19DF8000076
:1049F00040F02000009004E09DF8000020F020002E
:104A000000901A4A12681179184A526810786B4659
:104A10000122FFF7ECF910B14FF0FF3089E70320D6
:104A2000FEF734F8114890F8220010B18020009071
:104A300001E0002000900D4890F8230020B19DF87F
:104A4000000040F030000090084A1268117D074ACB
:104A5000526810786B460122FFF7C9F910B14FF088
:104A6000FF3066E701488474002062E7A40000205C
:104A700038B50446214890F82400A04201D1002016
:104A800038BD24B31D4890F8250010B94FF0FF3011
:104A9000F6E7002000F058FA0020FFF743FF17491F
:104AA000C88C00F0E9F800200090144949680878A3
:104AB0006B4601222321FFF79AF901210F4880F864
:104AC0002410012000F040FAFFF778FD13E00020E9
:104AD00000F03AFA0948007C0090084949680878D3
:104AE0006B4601222321FFF782F90021034880F859
:104AF0002410FFF763FD0020C2E70000A40000209F
:104B000038B504461F48807A10B94FF0FF3038BDE1
:104B1000FA2C09D0B4F5FA7F09D0B4F57A7F09D020
:104B2000B4F5FA6F0CD108E0002000900BE00820EB
:104B3000009008E01020009005E01820009002E0AE
:104B40004FF0FF30E3E700BF0E48007A9DF80010F9
:104B5000B0EBE10F01D10020D9E70A4A1268917940
:104B6000084A526810786B460122FFF740F910B1ED
:104B70004FF0FF30CBE79DF80000C01001490872EC
:104B80000020C4E7A400002038B50446184890F877
:104B90002300A04201D1002038BD14B13020009084
:104BA00001E0002000901248807C20B19DF80000B8
:104BB00040F0020000900E4890F8220020B19DF8CD
:104BC000000040F080000090094A1268117D084AF8
:104BD000526810786B460122FFF709F910B14FF0C7
:104BE000FF30D9E7024880F823400020D4E70000D6
:104BF000A400002038B504461E48807A10B94FF052
:104C0000FF3038BDBC2C02DB0120009015E0622C87
:104C100002DB0220009010E02A2C02DB032000902F
:104C20000BE0142C02DB0420009006E00A2C02DBCF
:104C30000520009001E0062000900E48C07A9DF803
:104C40000010884201D10020DBE70A4A12689178FF
:104C5000084A526810786B460122FFF7C8F810B175
:104C60004FF0FF30CDE79DF800100248C1720020E0
:104C7000C7E70000A400002038B504462448807A25
:104C800010B94FF0FF3038BD214890F8240010B122
:104C90004FF0FF30F7E71E48007D50B134B1282CAB
:104CA00004DCE0B2FFF77AFB0020ECE70020FFF71E
:104CB00075FB042C01DA042404E0B4F57A7F01DDED
:104CC0004FF47A744FF47A7090FBF4F0401EC0B247
:104CD00000900F4A126851780D4A526810786B465E
:104CE0000122FFF784F810B14FF0FF30CBE79DF8B9
:104CF0000000401C4FF47A7191FBF0F081B204483F
:104D0000C1810146C9894810FFF774FF0020BAE746
:104D1000A400002038B5044604F0700010B1012052
:104D2000009005E014B10020009001E040200090C8
:104D30002B4A1268917C2A4A526810786B460122ED
:104D4000FFF755F820B1002125488172481E38BD73
:104D50009DF8000020F040012148017300200090E0
:104D600004F0400020B99DF8000040F004000090DD
:104D700004F0200020B99DF8000040F002000090EF
:104D800004F0100020B99DF8000040F001000090F0
:104D900004F0080020B99DF8000040F038000090B1
:104DA0000F4A1268D17C0E4A526810786B46012275
:104DB000FFF71DF820B1002109488172481EC6E79F
:104DC00024B1082C02D00020FFF7DEFE04488472D4
:104DD000002101753220FDF759FE0020B7E70000E1
:104DE000A4000020F8B504460D46164616B94FF04B
:104DF000FF30F8BD1A48807A10B94FF0FF30F8E75D
:104E000020128DF80000E0B28DF801009DF801003D
:104E10002844134949684989884202DD4FF0FF3030
:104E2000E7E70F4A1268117E0D4A526810786B4608
:104E30000222FEF7DCFF10B14FF0FF30D9E7EAB2F3
:104E4000074B1B68597D064B5B6818783346FEF7A5
:104E5000CEFF10B14FF0FF30CBE70020C9E70000D4
:104E6000A400002070B588B002A905A8FFF78AFC4D
:104E70000446032C3FD101A8FFF7DCF8059800F0A9
:104E8000B1FF0646019901F00DF8054600F06EFFEE
:104E90000590069800F0A6FF0646019901F002F879
:104EA000054600F063FF0690079800F09BFF06465A
:104EB000019900F0F7FF054600F058FF079005A89C
:104EC000FEF740F96846FFF761F8BDF80010029858
:104ED00048430290BDF80010039848430390BDF882
:104EE000001004984843049002A8FEF75BF804A061
:104EF000FCF76DF902E00BA0FCF769F908B070BD92
:104F000073657474696E6720626961732073756379
:104F100063657366756C6C79202E2E2E2E2E2E0AEC
:104F2000000000006269617320686173206E6F7415
:104F3000206265656E206D6F646966696564202E08
:104F40002E2E2E2E2E0A000038B50446214890F849
:104F50002400C0B114B10220009001E000200090B4
:104F60001C4A1268D17B1B4A526810786B4601229A
:104F7000FEF73DFF10B14FF0FF3038BD9DF8001037
:104F80001448417423E01348807A10B94FF0FF3081
:104F9000F3E724B10F48407C08B10020EDE714B1DD
:104FA0000120009001E0002000900A4A1268D17BA5
:104FB000084A526810786B460122FEF718FF10B1BC
:104FC0004FF0FF30D9E79DF80010024841740020EF
:104FD000D3E70000A40000202DE9F04106460F466B
:104FE00000F064FB04000D4618BF0120284320F0A8
:104FF0000040C0F17F6000F1E040C00F0ED0301CD7
:1050000018BF0120384320F00040C0F17F6000F15C
:10501000E040C00F04BF0120FBF7CFF9204629462E
:10502000BDE8F08121F00042A2F16052B2F5801F8C
:1050300001F0004328BFD2F17F6C0BD95FEA001C5E
:1050400043EAC20242EB507018BF704728BF20F0FD
:1050500001007047B2F5801FBCBF184670474FEA89
:10506000410C1CF5001F02D2084600F0E2BF70B5EB
:1050700000F0BCFA00000089FFF7F6BF4FF00040D7
:10508000A0F580007047000010B591EA030F48BFFB
:1050900083F0004300F1F883841A71EB030C05D20E
:1050A000121943EB0C03001B61EB0C01DFF824E148
:1050B0004FEA1154A4EB135C1EEA430F18BF9EEA9B
:1050C000445F73D023EA0E03DCF1200E21EA045181
:1050D00043F4801332D322FA0CFE10EB0E0023FAB5
:1050E0000CFE41EB0E01CCF1200E03FA0EFE10EB8C
:1050F0000E0051F10001B1F5801FCCF1200E32D22B
:1051000001EB045112FA0EF2BDE8104058BF70478F
:10511000401C38BF5FEA420218BF7047002814BF26
:1051200020F0010041F100014FEA410313F5001F97
:1051300038BF7047A1F1C04100F0A6BA012A43EB85
:105140000302ACF1200CDCF11F0E32BF4FF0000E59
:1051500023FA0CF310EB030041EB0451B4EB115FA5
:10516000D0D0A1EB045101F5801149085FEA30006D
:1051700001EB04510ED350F1000038BF12FA0EFEBD
:1051800008D1BDE81040C9E7401C38BF5FEA4202C1
:10519000CAD1C3E7BDE810404FEA410313F5001F31
:1051A00038BF7047A1F1C04100F06EBA9EEA445F7B
:1051B00008D011EA5E0FBDE8104004BF01F00041C5
:1051C00000207047BDE8104070B500F00FFA00BF36
:1051D00064FBBE3E0000E0FF02494FF0000000F01B
:1051E000D4BF00BF0000F87F2DE9C04130B4DFF824
:1051F000A0C23CEA111418BF3CEA131400F0EC8082
:1052000081EA03051CEA111444EAD57418BF1CEAAC
:10521000131500F0C780A4EB05044FF0004545EAE4
:10522000C12145EAC32341EA505143EA525304F1F4
:105230007F74994204F500344FEAC0204FEAC2223D
:1052400008BF904200F09C804FEA13650FF24016B1
:10525000765D4FEA134506FB05F7C7F1807706FB3D
:1052600007F74FEAD737A7FB03687642C8F58038BF
:10527000A7FB06CE38BFA8F1010807FB08E64FF0F0
:10528000000EA6FB028CE6FB03CEDCF1000CCEF197
:10529000004E38BFAEF1010EA6FB0C584FF00007D0
:1052A0004FF00005E6FB0E87A1FB08C6A0FB07CE6A
:1052B00016EB0E0645F10005E1FB076515F1E04E22
:1052C0007EBFA4F580345FEA46066D4116F1800783
:1052D00045F100054FEA17274FEA066647EA0567DA
:1052E000A6F1DE46B6F1805F4FEA15251FD9384694
:1052F00024F0010C05EBC471BCF1FE6F01EB0C1145
:1053000002D8F0BCBDE8008124425CBF01F5801EDC
:105310009EEAC47F02D4F0BCBDE80081244238D4A8
:10532000F0BCA1F1C041BDE8004100F0ADB94FEAC9
:10533000D22242EA43524FEAD323A7FB02864FEA26
:10534000D02040EA415007FB03661EEA0E0F4FEAE9
:10535000D12105FB026658BFA6EB0056B6EB0056FE
:105360004FEA520E4EEAC37E18EB0E0E56EB530E6A
:10537000BDD518EB02085E417F1C55F10005B6E76C
:105380004FF480154FF000074FF000064FF0000873
:10539000ADE7F0BC4FF0000001F1C04101F0004169
:1053A000BDE8008111EA0C1F0CEA131500D00CE0D7
:1053B00013EA0C1F00F025804FF00000F0BC81EADA
:1053C000030101F00041BDE80081F0BCBDE80041EF
:1053D00081EA030100F058B9F0BCBDE8004170B5A6
:1053E00000F004F9097EFC3E00F007B881EA0301F1
:1053F0004FF0000001F00041704781EA030100F026
:1054000043B9F0BCBDE800414FF0000021497047AE
:10541000FFFDFBF9F7F5F4F2F0EEEDEBE9E8E6E479
:10542000E3E1E0DEDDDBDAD8D7D5D4D3D1D0CFCD00
:10543000CCCBCAC8C7C6C5C4C2C1C0BFBEBDBCBB39
:10544000BAB9B8B7B6B5B4B3B2B1B0AFAEADACAB34
:10545000AAA9A8A8A7A6A5A4A3A3A2A1A09F9F9E0E
:105460009D9C9C9B9A9999989797969595949393C0
:10547000929191908F8F8E8E8D8C8C8B8B8A898957
:1054800088888787868585848483838282818180DA
:105490000000FF070000F87FDFF848C170B51CEA84
:1054A000111E1EBF1CEA13159EEA0C0F95EA0C0F85
:1054B00000F06F8081EA030423EA4C134EEAD47EA5
:1054C00021EA4C1141F4801143F48013AE44A1FB56
:1054D000024CA0FB0365AEF17F7E361955EB0C053F
:1054E000A1FB034C4CF10003A0FB021C16EB0C06C5
:1054F000654153F10003094218BF46F0010613F459
:10550000007F0BD14FEA03314FEA0530340341EA03
:10551000155140EA16506FF003020AE04FEAC3212A
:105520004FEAC520F40241EA555140EA56506FF067
:10553000020202EB2E4201EB025585EACE710AD03F
:105540005FEA440C18BF24F0004450F1000041F120
:10555000000120EAD47040F2FE7C624500D270BDAA
:10556000A84214BF4FF080444FF04044002E08BFC3
:105570000024BEF1806FA8BFA1F1C041BDE870401A
:1055800080F282804FF0000001F1C04101F0004143
:1055900070479EEA0C0F0CEA131518BF95EA0C0F22
:1055A00006D04FF0000081EA030E0EF0004170BDFE
:1055B00000F01CF88900013E00F007B800F009B8BF
:1055C0004FEA430C5FEA5C5C08D081EA030100F01B
:1055D0005BB84FEA410C5FEA5C5CF6D14FF000002B
:1055E000014970470000FF070000F87F0EF1020E2E
:1055F0002EF0030E5EF8046B364205D4012A43EB0D
:10560000030515F5001F12D8012841EB010C1CF50C
:10561000001F0CD80ED14FEAD17C15F5001F0CEB02
:105620004C0C0CF1020C08BF4CEBD37C04E04FF0A7
:10563000080C01E04FEAD37C0CEB4C0526FA05F68A
:1056400006F00706B6F1040C06D20EEB860CBDE898
:1056500070404CF0010C6047DFE80CF0090B0202CF
:105660004FF000414FF00000A1F5002170BD194638
:105670001046012851EB010418BFD4F5001484BF73
:10568000002001F0004170BD0808A0F500114FEAAC
:105690003101704791EA030F10B581F000413FF5E9
:1056A000FBAC83F0004300F0EFB800002DE9F041BF
:1056B00001F5801CBCF5001FC0F2C3804FEA115CED
:1056C00021EA0C510CF1FD0C41F480115FEA5C0CF5
:1056D0000CF5C07C01D3400049413DA4890241EA58
:1056E000905187028E0E0A0CA45D04FB04F602FBA7
:1056F00006F6C6F14046A4FB0662F60D46EA4226CF
:1057000006FB06F4A4FB01235242C3F1404338BF19
:105710005B1EA6FB02420024E6FB0324D20B42EAF6
:105720004446A6FB0623A1FB02E2A3FB07E4A41860
:105730004FF0000252F10002E3FB01426442C2F169
:10574000404E38BFAEF1010EA6FB04234FF000021D
:10575000E6FB0E32A2FB03464FF00004B61954F1EB
:105760000004E2FB0264A1FB06E6A4FB07E816EBDB
:1057700008064FF0000858F10008E4FB0168764283
:10578000C8F1405838BFA8F10108A2FB06E4A3FB0A
:1057900008E52D194FF0000454F10004E2FB085411
:1057A000A1FB05E6A7FB04E818EB06084FF000068E
:1057B00056F10006E1FB048618F1200556F10006BB
:1057C000A809A8F11B08B10908F03F08B8F10A0FB1
:1057D00040EA86601CD901EB0C51BDE8F08100BFA6
:1057E000FCF5EEE8E2DDD8D3CFCBC7C3C0BDB9B678
:1057F000B4B1AEACA9A7A5A3A19F9D9B9A9896957D
:105800009392908F8D8C8B89888786858483828103
:10581000A0FB006800FB01F208EB4208B8EB872808
:1058200007D5341858EB0104D5D5401C51F10001BF
:10583000D1E7341A78EB0104CDD4401E71F1000198
:10584000C9E75FEA4C0C5FEA9C5C0DD105D34FF0D1
:10585000000001F00041BDE8F081BDE8F04170B505
:10586000FFF7C4FE6DDBFFBEBDE8F0414FF0000066
:10587000004970470000F87F10B591EA030F48BF58
:1058800083F000433FF508AC841A71EB030C07D298
:1058900012198CF0004C43EB0C03001B61EB0C0164
:1058A000DFF8A4E14FEA1154A4EB135C1EEA430FA6
:1058B00018BF9EEA445F00F0B08023EA6E035242B4
:1058C00021EA0451C3EB6E0338BF5B1EDCF1200EEE
:1058D00025D322FA0CFE10EB0E0043FA0CFE41EB2E
:1058E0000E01CCF1200E03FA0EFE10EB0E0051F16A
:1058F0000001CCF1200E29D412FA0EF201EB045172
:10590000BDE8104058BF7047401C1CBFB2F1004FAB
:10591000704700280CBF491C20F00100704712EBB3
:10592000020E43EB030218BF4FF0010E4EEA420293
:10593000ACF1200CDCF11E0E54D943FA0CFE10EB36
:105940000E0051F1FF31CCF11E0ED5D50EF1010E36
:1059500012FA0EFE404141EB010101EB445C5FEAAB
:105960005C5C10D910EBDE7001EB045138BFBEF166
:10597000004FBDE8104018BF704700280CBF491CFD
:1059800020F00100704730D24FEAD42C11F50011FD
:1059900024F400641BD0B1FA81F20B3AA41AA41EBD
:1059A000D2F12003914030FA03F31943904001EB08
:1059B000CC71002C01EB0451BDE81040A8BF70472A
:1059C00001F1C0414FF0000001F000417047B0FA12
:1059D00080F310FA03F100D110BDE41A173C48051A
:1059E000C90AE4E701EB045110BD491001EB045171
:1059F000BDE810404FEA300002E04FF00001704770
:105A00004A0008BF0042F8D0B2F5001F28BF704717
:105A100001F000414FF0000070479EEA445F07D05C
:105A200011EA5E0FBDE8104004BF0021002070475E
:105A3000BDE8104070B5FFF7D9FD00BF40DFF63E6E
:105A400083F00041104670470000E0FF43004FEA3A
:105A5000D30C4FEA3C0C43401FBF40070CF1605190
:105A600013F0FE4F70471CF0006F03D100200CF0C4
:105A7000004170470CF0004343EA507010B540EA13
:105A8000CC0000F090FA00BF000000924FEA000145
:105A9000FFF7FABD4FF000414FF00000A1F50021E3
:105AA0007047000090EA010F48BF81F0004100F10B
:105AB000FE82421A3CBF801A89184FEAD0524FF03A
:105AC0007F4C1CEA410FA2EBD15318BF9CEA026F36
:105AD00000F03B804FF0004C4CEA00204CEA0121E2
